{
  "address": "0xb256E35Ad58fc9c57948388C27840CEBcd7cb991",
  "abi": [
    {
      "inputs": [
        {
          "internalType": "uint256",
          "name": "value",
          "type": "uint256"
        },
        {
          "internalType": "uint256",
          "name": "length",
          "type": "uint256"
        }
      ],
      "name": "StringsInsufficientHexLength",
      "type": "error"
    },
    {
      "anonymous": false,
      "inputs": [
        {
          "indexed": true,
          "internalType": "bytes32",
          "name": "role",
          "type": "bytes32"
        },
        {
          "indexed": true,
          "internalType": "bytes32",
          "name": "previousAdminRole",
          "type": "bytes32"
        },
        {
          "indexed": true,
          "internalType": "bytes32",
          "name": "newAdminRole",
          "type": "bytes32"
        }
      ],
      "name": "RoleAdminChanged",
      "type": "event"
    },
    {
      "anonymous": false,
      "inputs": [
        {
          "indexed": true,
          "internalType": "bytes32",
          "name": "role",
          "type": "bytes32"
        },
        {
          "indexed": true,
          "internalType": "address",
          "name": "account",
          "type": "address"
        },
        {
          "indexed": true,
          "internalType": "address",
          "name": "sender",
          "type": "address"
        }
      ],
      "name": "RoleGranted",
      "type": "event"
    },
    {
      "anonymous": false,
      "inputs": [
        {
          "indexed": true,
          "internalType": "bytes32",
          "name": "role",
          "type": "bytes32"
        },
        {
          "indexed": true,
          "internalType": "address",
          "name": "account",
          "type": "address"
        },
        {
          "indexed": true,
          "internalType": "address",
          "name": "sender",
          "type": "address"
        }
      ],
      "name": "RoleRevoked",
      "type": "event"
    },
    {
      "anonymous": false,
      "inputs": [
        {
          "indexed": false,
          "internalType": "address",
          "name": "erc721Address",
          "type": "address"
        },
        {
          "indexed": false,
          "internalType": "address",
          "name": "seller",
          "type": "address"
        },
        {
          "indexed": false,
          "internalType": "uint256",
          "name": "token",
          "type": "uint256"
        },
        {
          "indexed": false,
          "internalType": "uint256",
          "name": "tokenPrice",
          "type": "uint256"
        },
        {
          "indexed": false,
          "internalType": "uint256",
          "name": "offerId",
          "type": "uint256"
        }
      ],
      "name": "TokenOfferCreated",
      "type": "event"
    },
    {
      "anonymous": false,
      "inputs": [
        {
          "indexed": false,
          "internalType": "address",
          "name": "erc721Address",
          "type": "address"
        },
        {
          "indexed": false,
          "internalType": "address",
          "name": "buyer",
          "type": "address"
        },
        {
          "indexed": false,
          "internalType": "address",
          "name": "seller",
          "type": "address"
        },
        {
          "indexed": false,
          "internalType": "uint256",
          "name": "token",
          "type": "uint256"
        },
        {
          "indexed": false,
          "internalType": "uint256",
          "name": "tokenPrice",
          "type": "uint256"
        }
      ],
      "name": "TokenSold",
      "type": "event"
    },
    {
      "inputs": [],
      "name": "MAINTAINER",
      "outputs": [
        {
          "internalType": "bytes32",
          "name": "",
          "type": "bytes32"
        }
      ],
      "stateMutability": "view",
      "type": "function"
    },
    {
      "inputs": [],
      "name": "RESALE_ADMIN",
      "outputs": [
        {
          "internalType": "bytes32",
          "name": "",
          "type": "bytes32"
        }
      ],
      "stateMutability": "view",
      "type": "function"
    },
    {
      "inputs": [
        {
          "internalType": "address",
          "name": "erc721",
          "type": "address"
        },
        {
          "internalType": "uint256",
          "name": "token",
          "type": "uint256"
        },
        {
          "internalType": "uint256",
          "name": "tokenPrice",
          "type": "uint256"
        },
        {
          "internalType": "address",
          "name": "nodeAddress",
          "type": "address"
        }
      ],
      "name": "createGasTokenOffer",
      "outputs": [],
      "stateMutability": "nonpayable",
      "type": "function"
    },
    {
      "inputs": [
        {
          "internalType": "address",
          "name": "erc721",
          "type": "address"
        },
        {
          "internalType": "address",
          "name": "buyer",
          "type": "address"
        },
        {
          "internalType": "address",
          "name": "seller",
          "type": "address"
        },
        {
          "internalType": "uint256",
          "name": "token",
          "type": "uint256"
        },
        {
          "internalType": "uint256",
          "name": "tokenPrice",
          "type": "uint256"
        },
        {
          "internalType": "address",
          "name": "nodeAddress",
          "type": "address"
        }
      ],
      "name": "generateResaleHash",
      "outputs": [
        {
          "internalType": "bytes32",
          "name": "",
          "type": "bytes32"
        }
      ],
      "stateMutability": "view",
      "type": "function"
    },
    {
      "inputs": [
        {
          "internalType": "uint256",
          "name": "offerIndex",
          "type": "uint256"
        }
      ],
      "name": "getResaleOffer",
      "outputs": [
        {
          "components": [
            {
              "internalType": "address",
              "name": "erc721",
              "type": "address"
            },
            {
              "internalType": "address",
              "name": "buyer",
              "type": "address"
            },
            {
              "internalType": "address",
              "name": "seller",
              "type": "address"
            },
            {
              "internalType": "uint256",
              "name": "token",
              "type": "uint256"
            },
            {
              "internalType": "uint256",
              "name": "tokenPrice",
              "type": "uint256"
            },
            {
              "internalType": "address",
              "name": "nodeAddress",
              "type": "address"
            }
          ],
          "internalType": "struct ResaleStorage.resaleOffer",
          "name": "offer",
          "type": "tuple"
        }
      ],
      "stateMutability": "view",
      "type": "function"
    },
    {
      "inputs": [
        {
          "internalType": "bytes32",
          "name": "role",
          "type": "bytes32"
        }
      ],
      "name": "getRoleAdmin",
      "outputs": [
        {
          "internalType": "bytes32",
          "name": "",
          "type": "bytes32"
        }
      ],
      "stateMutability": "view",
      "type": "function"
    },
    {
      "inputs": [
        {
          "internalType": "bytes32",
          "name": "role",
          "type": "bytes32"
        },
        {
          "internalType": "uint256",
          "name": "index",
          "type": "uint256"
        }
      ],
      "name": "getRoleMember",
      "outputs": [
        {
          "internalType": "address",
          "name": "",
          "type": "address"
        }
      ],
      "stateMutability": "view",
      "type": "function"
    },
    {
      "inputs": [
        {
          "internalType": "bytes32",
          "name": "role",
          "type": "bytes32"
        }
      ],
      "name": "getRoleMemberCount",
      "outputs": [
        {
          "internalType": "uint256",
          "name": "",
          "type": "uint256"
        }
      ],
      "stateMutability": "view",
      "type": "function"
    },
    {
      "inputs": [
        {
          "internalType": "address",
          "name": "erc721",
          "type": "address"
        }
      ],
      "name": "getRoyalties",
      "outputs": [
        {
          "components": [
            {
              "internalType": "address",
              "name": "recipient",
              "type": "address"
            },
            {
              "internalType": "uint256",
              "name": "percentage",
              "type": "uint256"
            }
          ],
          "internalType": "struct ResaleStorage.feeSplits[]",
          "name": "",
          "type": "tuple[]"
        }
      ],
      "stateMutability": "view",
      "type": "function"
    },
    {
      "inputs": [
        {
          "internalType": "bytes32",
          "name": "role",
          "type": "bytes32"
        },
        {
          "internalType": "address",
          "name": "account",
          "type": "address"
        }
      ],
      "name": "grantRole",
      "outputs": [],
      "stateMutability": "nonpayable",
      "type": "function"
    },
    {
      "inputs": [
        {
          "internalType": "bytes32",
          "name": "role",
          "type": "bytes32"
        },
        {
          "internalType": "address",
          "name": "account",
          "type": "address"
        }
      ],
      "name": "hasRole",
      "outputs": [
        {
          "internalType": "bool",
          "name": "",
          "type": "bool"
        }
      ],
      "stateMutability": "view",
      "type": "function"
    },
    {
      "inputs": [
        {
          "internalType": "uint256",
          "name": "offerIndex",
          "type": "uint256"
        }
      ],
      "name": "purchaseGasTokenOffer",
      "outputs": [],
      "stateMutability": "payable",
      "type": "function"
    },
    {
      "inputs": [
        {
          "internalType": "address",
          "name": "erc721",
          "type": "address"
        },
        {
          "internalType": "address",
          "name": "buyer",
          "type": "address"
        },
        {
          "internalType": "address",
          "name": "seller",
          "type": "address"
        },
        {
          "internalType": "uint256",
          "name": "token",
          "type": "uint256"
        },
        {
          "internalType": "uint256",
          "name": "tokenPrice",
          "type": "uint256"
        },
        {
          "internalType": "address",
          "name": "nodeAddress",
          "type": "address"
        },
        {
          "internalType": "bytes",
          "name": "signature",
          "type": "bytes"
        }
      ],
      "name": "purchaseTokenOffer",
      "outputs": [],
      "stateMutability": "payable",
      "type": "function"
    },
    {
      "inputs": [
        {
          "internalType": "bytes32",
          "name": "role",
          "type": "bytes32"
        },
        {
          "internalType": "address",
          "name": "account",
          "type": "address"
        }
      ],
      "name": "renounceRole",
      "outputs": [],
      "stateMutability": "nonpayable",
      "type": "function"
    },
    {
      "inputs": [
        {
          "internalType": "bytes32",
          "name": "role",
          "type": "bytes32"
        },
        {
          "internalType": "address",
          "name": "account",
          "type": "address"
        }
      ],
      "name": "revokeRole",
      "outputs": [],
      "stateMutability": "nonpayable",
      "type": "function"
    },
    {
      "inputs": [
        {
          "internalType": "uint256",
          "name": "value",
          "type": "uint256"
        }
      ],
      "name": "setDecimalPow",
      "outputs": [],
      "stateMutability": "nonpayable",
      "type": "function"
    },
    {
      "inputs": [
        {
          "internalType": "uint256",
          "name": "value",
          "type": "uint256"
        }
      ],
      "name": "setPurchaseGracePeriod",
      "outputs": [],
      "stateMutability": "nonpayable",
      "type": "function"
    },
    {
      "inputs": [
        {
          "internalType": "address",
          "name": "erc721",
          "type": "address"
        },
        {
          "components": [
            {
              "internalType": "address",
              "name": "recipient",
              "type": "address"
            },
            {
              "internalType": "uint256",
              "name": "percentage",
              "type": "uint256"
            }
          ],
          "internalType": "struct ResaleStorage.feeSplits[]",
          "name": "fees",
          "type": "tuple[]"
        }
      ],
      "name": "setRoyalties",
      "outputs": [],
      "stateMutability": "nonpayable",
      "type": "function"
    }
  ],
  "transactionHash": "0x515ad381949021ab60c134b2e3777debcc77892050aca89c9edfb2cae5b24c76",
  "args": [],
  "numDeployments": 3,
  "solcInputHash": "178c4d722c354d34f098fe6f7de62a4c",
  "bytecode": "0x6080604052348015600f57600080fd5b50611eff8061001f6000396000f3fe6080604052600436106101095760003560e01c80636394f83f1161009557806391d148541161006457806391d148541461034d578063ca15c8731461037d578063d547741f1461039d578063da9bdab0146103bd578063ec71bce8146103f157600080fd5b80636394f83f146102b55780638e118fb3146102d55780638e6a912c146102f55780639010d07c1461031557600080fd5b806336568abe116100dc57806336568abe146101d8578063415bbe11146101f857806346b51ea51461026f5780634fbbada91461028257806358a59bf41461029557600080fd5b806314556a561461010e578063248a9ca3146101445780632aabb726146101825780632f2ff15d146101b6575b600080fd5b34801561011a57600080fd5b5061012e610129366004611962565b610411565b60405161013b9190611986565b60405180910390f35b34801561015057600080fd5b5061017461015f3660046119de565b60009081526020819052604090206001015490565b60405190815260200161013b565b34801561018e57600080fd5b506101747fd88b35d7427a01a8e16d8a129535b4cf3150edf8d92c0a44dc1eba73bdaf18cb81565b3480156101c257600080fd5b506101d66101d13660046119f7565b6104a7565b005b3480156101e457600080fd5b506101d66101f33660046119f7565b6104d2565b34801561020457600080fd5b506102186102133660046119de565b610555565b60405161013b919081516001600160a01b039081168252602080840151821690830152604080840151821690830152606080840151908301526080808401519083015260a092830151169181019190915260c00190565b6101d661027d366004611a3d565b610628565b6101d66102903660046119de565b610733565b3480156102a157600080fd5b506101d66102b03660046119de565b610832565b3480156102c157600080fd5b506101746102d0366004611b4c565b610882565b3480156102e157600080fd5b506101d66102f0366004611bbc565b610a5e565b34801561030157600080fd5b506101d6610310366004611c44565b610c6a565b34801561032157600080fd5b50610335610330366004611c8e565b610ed4565b6040516001600160a01b03909116815260200161013b565b34801561035957600080fd5b5061036d6103683660046119f7565b610ef5565b604051901515815260200161013b565b34801561038957600080fd5b506101746103983660046119de565b610f1e565b3480156103a957600080fd5b506101d66103b83660046119f7565b610f35565b3480156103c957600080fd5b506101747fc0f3378637414317b885402eb428659ba3cbc2330f4bee724741cd4aea9b8b4981565b3480156103fd57600080fd5b506101d661040c3660046119de565b610f5b565b6060600080516020611eaa8339815191526001600160a01b0383166000908152602091825260408082208054825181860281018601909352808352919390929084015b8282101561049c576000848152602090819020604080518082019091526002850290910180546001600160a01b03168252600190810154828401529083529092019101610454565b505050509050919050565b6000828152602081905260409020600101546104c38133610fab565b6104cd838361100f565b505050565b6001600160a01b03811633146105475760405162461bcd60e51b815260206004820152602f60248201527f416363657373436f6e74726f6c3a2063616e206f6e6c792072656e6f756e636560448201526e103937b632b9903337b91039b2b63360891b60648201526084015b60405180910390fd5b61055182826110a7565b5050565b6040805160c081018252600080825260208201819052918101829052606081018290526080810182905260a08101919091527f232aa753920d876dd52c6464ae9dec228a3cfdca7d146885d71d13b28dc65b9a8054839081106105ba576105ba611cb0565b60009182526020918290206040805160c081018252600690930290910180546001600160a01b0390811684526001820154811694840194909452600281015484169183019190915260038101546060830152600481015460808301526005015490911660a082015292915050565b6000610638888888888888610882565b90506000610693826040517f19457468657265756d205369676e6564204d6573736167653a0a3332000000006020820152603c8101829052600090605c01604051602081830303815290604052805190602001209050919050565b90506106c37fc0f3378637414317b885402eb428659ba3cbc2330f4bee724741cd4aea9b8b496103688386611120565b61070f5760405162461bcd60e51b815260206004820181905260248201527f526573616c653a20496e76616c69642077697468647261772072657175657374604482015260640161053e565b61071b8986868a61119f565b6107288987898b896113f6565b505050505050505050565b6000600080516020611eaa833981519152600401828154811061075857610758611cb0565b6000918252602090912060069091020160018101549091506001600160a01b0316156107c65760405162461bcd60e51b815260206004820152601f60248201527f526573616c653a204f6666657220616c72656164792070757263686173656400604482015260640161053e565b80546004820154600583015460028401546107f1936001600160a01b0390811693928116911661119f565b805460038201546002830154600484015461081c936001600160a01b039081169392169033906113f6565b60010180546001600160a01b0319163317905550565b7fd88b35d7427a01a8e16d8a129535b4cf3150edf8d92c0a44dc1eba73bdaf18cb61085d8133610fab565b507f232aa753920d876dd52c6464ae9dec228a3cfdca7d146885d71d13b28dc65b9855565b60405163e985e9c560e01b81526001600160a01b0385811660048301523060248301526000919088169063e985e9c590604401602060405180830381865afa1580156108d2573d6000803e3d6000fd5b505050506040513d601f19601f820116820180604052508101906108f69190611cc6565b80610972575060405163020604bf60e21b81526004810185905230906001600160a01b0389169063081812fc90602401602060405180830381865afa158015610943573d6000803e3d6000fd5b505050506040513d601f19601f820116820180604052508101906109679190611ce8565b6001600160a01b0316145b6109d75760405162461bcd60e51b815260206004820152603060248201527f526573616c653a204d61726b6574706c6163652069736e277420617070726f7660448201526f656420666f72207472616e736665727360801b606482015260840161053e565b8686868686866109e56114bb565b6040516bffffffffffffffffffffffff19606098891b8116602083015296881b8716603482015294871b86166048860152605c850193909352607c84019190915290931b909116609c82015260b081019190915260d0016040516020818303038152906040528051906020012090509695505050505050565b826000600080516020611eaa833981519152604051632474521560e21b81527f3c2519c4487d47714872f92cf90a50c25f5deaec2789dc2a497b1272df611db660048201523360248201529091506001600160a01b038316906391d1485490604401602060405180830381865afa158015610add573d6000803e3d6000fd5b505050506040513d601f19601f82011682018060405250810190610b019190611cc6565b80610b765750604051632474521560e21b8152600060048201523360248201526001600160a01b038316906391d1485490604401602060405180830381865afa158015610b52573d6000803e3d6000fd5b505050506040513d601f19601f82011682018060405250810190610b769190611cc6565b610be85760405162461bcd60e51b815260206004820152603d60248201527f526573616c653a204f6e6c7920746865206f776e6572206f66206120636f6e7460448201527f726163742063616e2073657420637573746f6d20726f79616c74696573000000606482015260840161053e565b60005b83811015610c62576001600160a01b0386166000908152600080516020611eaa83398151915260205260409020858583818110610c2a57610c2a611cb0565b835460018101855560009485526020909420604090910292909201926002029091019050610c588282611d05565b5050600101610beb565b505050505050565b6040516331a9108f60e11b81526004810184905233906001600160a01b03861690636352211e90602401602060405180830381865afa158015610cb1573d6000803e3d6000fd5b505050506040513d601f19601f82011682018060405250810190610cd59190611ce8565b6001600160a01b031614610d3e5760405162461bcd60e51b815260206004820152602a60248201527f526573616c653a204e6f74207468652063757272656e74206f776e6572206f66604482015269103a3432903a37b5b2b760b11b606482015260840161053e565b7f232aa753920d876dd52c6464ae9dec228a3cfdca7d146885d71d13b28dc65b9a80546001808201835560008390527fa62c46310d289fa80c1ba7e34ec8c731947a3a6abd942dc427f9fc608de857e3600690920291820180546001600160a01b03199081166001600160a01b038a811691821784557fa62c46310d289fa80c1ba7e34ec8c731947a3a6abd942dc427f9fc608de857e5860180543390851681179091557fa62c46310d289fa80c1ba7e34ec8c731947a3a6abd942dc427f9fc608de857e687018b90557fa62c46310d289fa80c1ba7e34ec8c731947a3a6abd942dc427f9fc608de857e787018a90557fa62c46310d289fa80c1ba7e34ec8c731947a3a6abd942dc427f9fc608de857e8909601805490931690881617909155935490937f85d0909ac42cb4f28bdac7af71b9af534efa326b2256cd44097577545b18ca6e939092909188918891610e969190611d51565b604080516001600160a01b039687168152959094166020860152928401919091526060830152608082015260a0015b60405180910390a15050505050565b6000828152600160205260408120610eec9083611507565b90505b92915050565b6000918252602082815260408084206001600160a01b0393909316845291905290205460ff1690565b6000818152600160205260408120610eef90611513565b600082815260208190526040902060010154610f518133610fab565b6104cd83836110a7565b7fd88b35d7427a01a8e16d8a129535b4cf3150edf8d92c0a44dc1eba73bdaf18cb610f868133610fab565b507f232aa753920d876dd52c6464ae9dec228a3cfdca7d146885d71d13b28dc65b9955565b610fb58282610ef5565b61055157610fcd816001600160a01b0316601461151d565b610fd883602061151d565b604051602001610fe9929190611d88565b60408051601f198184030181529082905262461bcd60e51b825261053e91600401611dfd565b6110198282610ef5565b610551576000828152602081815260408083206001600160a01b03851684529091529020805460ff1916600117905561104f3390565b6001600160a01b0316816001600160a01b0316837f2f8788117e7eff1d82e926ec794901d17c78024a50270940304540a733656f0d60405160405180910390a460008281526001602052604090206104cd908261169d565b6110b18282610ef5565b15610551576000828152602081815260408083206001600160a01b0385168085529252808320805460ff1916905551339285917ff6391f5c32d9c69d2a47ea670b442974b53935d1edc7fd64eb21e047a839171b9190a460008281526001602052604090206104cd90826116b2565b60008060008061112f856116c7565b6040805160008152602081018083528b905260ff8316918101919091526060810184905260808101839052929550909350915060019060a0016020604051602081039080840390855afa15801561118a573d6000803e3d6000fd5b5050604051601f190151979650505050505050565b6001600160a01b0384166000908152600080516020611eaa83398151915260205260409020348411156112145760405162461bcd60e51b815260206004820152601b60248201527f526573616c653a20496e73756666696369656e742066756e6473210000000000604482015260640161053e565b8360006112218234611d51565b111561123a5761123a336112358734611d51565b61173b565b60035460009061124b906064611e30565b6004546112589088611e30565b6112629190611e47565b905061126e858261173b565b806112798184611d51565b60035490935061128a906064611e30565b6005546112979089611e30565b6112a19190611e47565b6006549092506112ba906001600160a01b03168361173b565b6112c48282611e69565b90506112d08284611d51565b925060005b845481101561137c576003546112ec906064611e30565b8582815481106112fe576112fe611cb0565b9060005260206000209060020201600101548961131b9190611e30565b6113259190611e47565b925061135c85828154811061133c5761133c611cb0565b60009182526020909120600290910201546001600160a01b03168461173b565b6113668383611e69565b91506113728385611d51565b93506001016112d5565b50611387858461173b565b6113918382611e69565b90508681146113ec5760405162461bcd60e51b815260206004820152602160248201527f526573616c653a204572726f72207472616e7366657272696e672066756e64736044820152602160f81b606482015260840161053e565b5050505050505050565b6040516323b872dd60e01b81526001600160a01b0384811660048301528381166024830152604482018690528616906323b872dd90606401600060405180830381600087803b15801561144857600080fd5b505af115801561145c573d6000803e3d6000fd5b5050604080516001600160a01b03808a168252808716602083015287169181019190915260608101879052608081018490527f2f0996da6c077604b5bde68e82fc6389b549462f3d448d4bda60ad38e1a73986925060a0019050610ec5565b60006114c8606442611e47565b6114d3906064611e30565b7f232aa753920d876dd52c6464ae9dec228a3cfdca7d146885d71d13b28dc65b98549091506115029082611e69565b905090565b6000610eec83836117de565b6000610eef825490565b606082600061152d846002611e30565b611538906002611e69565b67ffffffffffffffff81111561155057611550611a27565b6040519080825280601f01601f19166020018201604052801561157a576020820181803683370190505b509050600360fc1b8160008151811061159557611595611cb0565b60200101906001600160f81b031916908160001a905350600f60fb1b816001815181106115c4576115c4611cb0565b60200101906001600160f81b031916908160001a90535060006115e8856002611e30565b6115f3906001611e69565b90505b600181111561166b576f181899199a1a9b1b9c1cb0b131b232b360811b83600f166010811061162757611627611cb0565b1a60f81b82828151811061163d5761163d611cb0565b60200101906001600160f81b031916908160001a90535060049290921c9161166481611e7c565b90506115f6565b5081156116955760405163e22e27eb60e01b8152600481018690526024810185905260440161053e565b949350505050565b6000610eec836001600160a01b038416611808565b6000610eec836001600160a01b038416611857565b6000806000835160411461171d5760405162461bcd60e51b815260206004820181905260248201527f526573616c653a20696e76616c6964207369676e6174757265206c656e677468604482015260640161053e565b50505060208101516040820151606090920151909260009190911a90565b6000826001600160a01b03168260405160006040518083038185875af1925050503d8060008114611788576040519150601f19603f3d011682016040523d82523d6000602084013e61178d565b606091505b50509050806104cd5760405162461bcd60e51b815260206004820152601760248201527f526573616c653a205472616e73666572206661696c6564000000000000000000604482015260640161053e565b60008260000182815481106117f5576117f5611cb0565b9060005260206000200154905092915050565b600081815260018301602052604081205461184f57508154600181810184556000848152602080822090930184905584548482528286019093526040902091909155610eef565b506000610eef565b6000818152600183016020526040812054801561194057600061187b600183611d51565b855490915060009061188f90600190611d51565b90508082146118f45760008660000182815481106118af576118af611cb0565b90600052602060002001549050808760000184815481106118d2576118d2611cb0565b6000918252602080832090910192909255918252600188019052604090208390555b855486908061190557611905611e93565b600190038181906000526020600020016000905590558560010160008681526020019081526020016000206000905560019350505050610eef565b6000915050610eef565b6001600160a01b038116811461195f57600080fd5b50565b60006020828403121561197457600080fd5b813561197f8161194a565b9392505050565b602080825282518282018190526000919060409081850190868401855b828110156119d157815180516001600160a01b031685528601518685015292840192908501906001016119a3565b5091979650505050505050565b6000602082840312156119f057600080fd5b5035919050565b60008060408385031215611a0a57600080fd5b823591506020830135611a1c8161194a565b809150509250929050565b634e487b7160e01b600052604160045260246000fd5b600080600080600080600060e0888a031215611a5857600080fd5b8735611a638161194a565b96506020880135611a738161194a565b95506040880135611a838161194a565b9450606088013593506080880135925060a0880135611aa18161194a565b915060c088013567ffffffffffffffff80821115611abe57600080fd5b818a0191508a601f830112611ad257600080fd5b813581811115611ae457611ae4611a27565b604051601f8201601f19908116603f01168101908382118183101715611b0c57611b0c611a27565b816040528281528d6020848701011115611b2557600080fd5b82602086016020830137600060208483010152809550505050505092959891949750929550565b60008060008060008060c08789031215611b6557600080fd5b8635611b708161194a565b95506020870135611b808161194a565b94506040870135611b908161194a565b9350606087013592506080870135915060a0870135611bae8161194a565b809150509295509295509295565b600080600060408486031215611bd157600080fd5b8335611bdc8161194a565b9250602084013567ffffffffffffffff80821115611bf957600080fd5b818601915086601f830112611c0d57600080fd5b813581811115611c1c57600080fd5b8760208260061b8501011115611c3157600080fd5b6020830194508093505050509250925092565b60008060008060808587031215611c5a57600080fd5b8435611c658161194a565b935060208501359250604085013591506060850135611c838161194a565b939692955090935050565b60008060408385031215611ca157600080fd5b50508035926020909101359150565b634e487b7160e01b600052603260045260246000fd5b600060208284031215611cd857600080fd5b8151801515811461197f57600080fd5b600060208284031215611cfa57600080fd5b815161197f8161194a565b8135611d108161194a565b81546001600160a01b0319166001600160a01b03919091161781556020919091013560019190910155565b634e487b7160e01b600052601160045260246000fd5b81810381811115610eef57610eef611d3b565b60005b83811015611d7f578181015183820152602001611d67565b50506000910152565b7f416363657373436f6e74726f6c3a206163636f756e7420000000000000000000815260008351611dc0816017850160208801611d64565b7001034b99036b4b9b9b4b733903937b6329607d1b6017918401918201528351611df1816028840160208801611d64565b01602801949350505050565b6020815260008251806020840152611e1c816040850160208701611d64565b601f01601f19169190910160400192915050565b8082028115828204841417610eef57610eef611d3b565b600082611e6457634e487b7160e01b600052601260045260246000fd5b500490565b80820180821115610eef57610eef611d3b565b600081611e8b57611e8b611d3b565b506000190190565b634e487b7160e01b600052603160045260246000fdfe232aa753920d876dd52c6464ae9dec228a3cfdca7d146885d71d13b28dc65b96a2646970667358221220dfc3dc828dea8ca2aaeb22326fda0cc980d94043b397d3b110a8213e4eb8648464736f6c63430008190033",
  "devdoc": {
    "author": "Juan M. Sanchez M.",
    "details": "Uses signed messages for gasless offer postings",
    "errors": {
      "StringsInsufficientHexLength(uint256,uint256)": [
        {
          "details": "The `value` string doesn't fit in the specified `length`."
        }
      ]
    },
    "events": {
      "RoleAdminChanged(bytes32,bytes32,bytes32)": {
        "params": {
          "newAdminRole": "contains the new status of the role",
          "previousAdminRole": "contains the previous status of the role",
          "role": "Contains the role we want to update"
        }
      },
      "RoleGranted(bytes32,address,address)": {
        "params": {
          "account": "contains the address that we want to grant the role",
          "role": "Contains the role we want to update",
          "sender": "contains the address that is changing the role of the account"
        }
      },
      "RoleRevoked(bytes32,address,address)": {
        "params": {
          "account": "contains the address that we want to revoke the role",
          "role": "Contains the role we want to update",
          "sender": "contains the address that is changing the role of the account"
        }
      }
    },
    "kind": "dev",
    "methods": {
      "getRoleAdmin(bytes32)": {
        "params": {
          "role": "Contains the role that we want to verify"
        },
        "returns": {
          "_0": "bytes that indicates if an account has or not an admin role"
        }
      },
      "getRoleMember(bytes32,uint256)": {
        "params": {
          "index": "Contains the indexed position to verify inside the role members list",
          "role": "Contains the role that we want to verify"
        },
        "returns": {
          "_0": "address that indicates the address indexed in that position"
        }
      },
      "getRoleMemberCount(bytes32)": {
        "params": {
          "role": "Contains the role that we want to verify"
        },
        "returns": {
          "_0": "uint256 that indicates the total accounts with that role"
        }
      },
      "grantRole(bytes32,address)": {
        "details": "This function is only available to an account with an Admin role",
        "params": {
          "account": "Contains the account that has the role we want to update",
          "role": "Contains the role that we want to grant"
        }
      },
      "hasRole(bytes32,address)": {
        "params": {
          "account": "Contains the account address thay we want to verify",
          "role": "Contains the role that we want to verify"
        },
        "returns": {
          "_0": "bool that indicates if an account has or not a role"
        }
      },
      "renounceRole(bytes32,address)": {
        "details": "Currently you can only renounce to your own roles",
        "params": {
          "account": "Contains the account that has the role we want to update",
          "role": "Contains the role to remove from our account"
        }
      },
      "revokeRole(bytes32,address)": {
        "details": "This function is only available to an account with an Admin role",
        "params": {
          "account": "Contains the account that has the role we want to update",
          "role": "Contains the role that we want to revoke"
        }
      }
    },
    "title": "RAIR Diamond - Resale Marketplace facet",
    "version": 1
  },
  "userdoc": {
    "events": {
      "RoleAdminChanged(bytes32,bytes32,bytes32)": {
        "notice": "This event stores in the blockchain when we change an admin role"
      },
      "RoleGranted(bytes32,address,address)": {
        "notice": "This event stores in the blockchain when we grant a role"
      },
      "RoleRevoked(bytes32,address,address)": {
        "notice": "This event stores in the blockchain when we revoke a role"
      }
    },
    "kind": "user",
    "methods": {
      "getRoleAdmin(bytes32)": {
        "notice": "Allow us to check the admin role that contains a role"
      },
      "getRoleMember(bytes32,uint256)": {
        "notice": "Allow us to check the address of an indexed position for the role list"
      },
      "getRoleMemberCount(bytes32)": {
        "notice": "Allow us to check total members that has an selected role"
      },
      "grantRole(bytes32,address)": {
        "notice": "Allow us to grant a role to an account"
      },
      "hasRole(bytes32,address)": {
        "notice": "Allow us to check the if and account has a selected role"
      },
      "renounceRole(bytes32,address)": {
        "notice": "Allow us to renounce to a role"
      },
      "revokeRole(bytes32,address)": {
        "notice": "Allow us to revoke a role to an account"
      }
    },
    "notice": "Facet in charge of transfering NFTs and funds",
    "version": 1
  },
  "storageLayout": {
    "storage": [
      {
        "astId": 2420,
        "contract": "contracts/Marketplace/Facets/ResalesFacet.sol:ResaleFacet",
        "label": "s",
        "offset": 0,
        "slot": "0",
        "type": "t_struct(AppStorage)2401_storage"
      }
    ],
    "types": {
      "t_address": {
        "encoding": "inplace",
        "label": "address",
        "numberOfBytes": "20"
      },
      "t_array(t_bytes32)dyn_storage": {
        "base": "t_bytes32",
        "encoding": "dynamic_array",
        "label": "bytes32[]",
        "numberOfBytes": "32"
      },
      "t_array(t_struct(feeSplits)2345_storage)dyn_storage": {
        "base": "t_struct(feeSplits)2345_storage",
        "encoding": "dynamic_array",
        "label": "struct feeSplits[]",
        "numberOfBytes": "32"
      },
      "t_array(t_struct(mintingOffer)2358_storage)dyn_storage": {
        "base": "t_struct(mintingOffer)2358_storage",
        "encoding": "dynamic_array",
        "label": "struct mintingOffer[]",
        "numberOfBytes": "32"
      },
      "t_array(t_uint256)dyn_storage": {
        "base": "t_uint256",
        "encoding": "dynamic_array",
        "label": "uint256[]",
        "numberOfBytes": "32"
      },
      "t_bool": {
        "encoding": "inplace",
        "label": "bool",
        "numberOfBytes": "1"
      },
      "t_bytes32": {
        "encoding": "inplace",
        "label": "bytes32",
        "numberOfBytes": "32"
      },
      "t_mapping(t_address,t_array(t_uint256)dyn_storage)": {
        "encoding": "mapping",
        "key": "t_address",
        "label": "mapping(address => uint256[])",
        "numberOfBytes": "32",
        "value": "t_array(t_uint256)dyn_storage"
      },
      "t_mapping(t_address,t_bool)": {
        "encoding": "mapping",
        "key": "t_address",
        "label": "mapping(address => bool)",
        "numberOfBytes": "32",
        "value": "t_bool"
      },
      "t_mapping(t_address,t_mapping(t_uint256,t_uint256))": {
        "encoding": "mapping",
        "key": "t_address",
        "label": "mapping(address => mapping(uint256 => uint256))",
        "numberOfBytes": "32",
        "value": "t_mapping(t_uint256,t_uint256)"
      },
      "t_mapping(t_bytes32,t_struct(AddressSet)2046_storage)": {
        "encoding": "mapping",
        "key": "t_bytes32",
        "label": "mapping(bytes32 => struct EnumerableSet.AddressSet)",
        "numberOfBytes": "32",
        "value": "t_struct(AddressSet)2046_storage"
      },
      "t_mapping(t_bytes32,t_struct(RoleData)2365_storage)": {
        "encoding": "mapping",
        "key": "t_bytes32",
        "label": "mapping(bytes32 => struct RoleData)",
        "numberOfBytes": "32",
        "value": "t_struct(RoleData)2365_storage"
      },
      "t_mapping(t_bytes32,t_uint256)": {
        "encoding": "mapping",
        "key": "t_bytes32",
        "label": "mapping(bytes32 => uint256)",
        "numberOfBytes": "32",
        "value": "t_uint256"
      },
      "t_mapping(t_uint256,t_uint256)": {
        "encoding": "mapping",
        "key": "t_uint256",
        "label": "mapping(uint256 => uint256)",
        "numberOfBytes": "32",
        "value": "t_uint256"
      },
      "t_struct(AddressSet)2046_storage": {
        "encoding": "inplace",
        "label": "struct EnumerableSet.AddressSet",
        "members": [
          {
            "astId": 2045,
            "contract": "contracts/Marketplace/Facets/ResalesFacet.sol:ResaleFacet",
            "label": "_inner",
            "offset": 0,
            "slot": "0",
            "type": "t_struct(Set)1731_storage"
          }
        ],
        "numberOfBytes": "64"
      },
      "t_struct(AppStorage)2401_storage": {
        "encoding": "inplace",
        "label": "struct AppStorage",
        "members": [
          {
            "astId": 2370,
            "contract": "contracts/Marketplace/Facets/ResalesFacet.sol:ResaleFacet",
            "label": "_roles",
            "offset": 0,
            "slot": "0",
            "type": "t_mapping(t_bytes32,t_struct(RoleData)2365_storage)"
          },
          {
            "astId": 2375,
            "contract": "contracts/Marketplace/Facets/ResalesFacet.sol:ResaleFacet",
            "label": "_roleMembers",
            "offset": 0,
            "slot": "1",
            "type": "t_mapping(t_bytes32,t_struct(AddressSet)2046_storage)"
          },
          {
            "astId": 2377,
            "contract": "contracts/Marketplace/Facets/ResalesFacet.sol:ResaleFacet",
            "label": "decimals",
            "offset": 0,
            "slot": "2",
            "type": "t_uint16"
          },
          {
            "astId": 2379,
            "contract": "contracts/Marketplace/Facets/ResalesFacet.sol:ResaleFacet",
            "label": "decimalPow",
            "offset": 0,
            "slot": "3",
            "type": "t_uint256"
          },
          {
            "astId": 2381,
            "contract": "contracts/Marketplace/Facets/ResalesFacet.sol:ResaleFacet",
            "label": "nodeFee",
            "offset": 0,
            "slot": "4",
            "type": "t_uint256"
          },
          {
            "astId": 2383,
            "contract": "contracts/Marketplace/Facets/ResalesFacet.sol:ResaleFacet",
            "label": "treasuryFee",
            "offset": 0,
            "slot": "5",
            "type": "t_uint256"
          },
          {
            "astId": 2385,
            "contract": "contracts/Marketplace/Facets/ResalesFacet.sol:ResaleFacet",
            "label": "treasuryAddress",
            "offset": 0,
            "slot": "6",
            "type": "t_address"
          },
          {
            "astId": 2389,
            "contract": "contracts/Marketplace/Facets/ResalesFacet.sol:ResaleFacet",
            "label": "mintingOffers",
            "offset": 0,
            "slot": "7",
            "type": "t_array(t_struct(mintingOffer)2358_storage)dyn_storage"
          },
          {
            "astId": 2395,
            "contract": "contracts/Marketplace/Facets/ResalesFacet.sol:ResaleFacet",
            "label": "addressToRangeOffer",
            "offset": 0,
            "slot": "8",
            "type": "t_mapping(t_address,t_mapping(t_uint256,t_uint256))"
          },
          {
            "astId": 2400,
            "contract": "contracts/Marketplace/Facets/ResalesFacet.sol:ResaleFacet",
            "label": "addressToOffers",
            "offset": 0,
            "slot": "9",
            "type": "t_mapping(t_address,t_array(t_uint256)dyn_storage)"
          }
        ],
        "numberOfBytes": "320"
      },
      "t_struct(RoleData)2365_storage": {
        "encoding": "inplace",
        "label": "struct RoleData",
        "members": [
          {
            "astId": 2362,
            "contract": "contracts/Marketplace/Facets/ResalesFacet.sol:ResaleFacet",
            "label": "members",
            "offset": 0,
            "slot": "0",
            "type": "t_mapping(t_address,t_bool)"
          },
          {
            "astId": 2364,
            "contract": "contracts/Marketplace/Facets/ResalesFacet.sol:ResaleFacet",
            "label": "adminRole",
            "offset": 0,
            "slot": "1",
            "type": "t_bytes32"
          }
        ],
        "numberOfBytes": "64"
      },
      "t_struct(Set)1731_storage": {
        "encoding": "inplace",
        "label": "struct EnumerableSet.Set",
        "members": [
          {
            "astId": 1726,
            "contract": "contracts/Marketplace/Facets/ResalesFacet.sol:ResaleFacet",
            "label": "_values",
            "offset": 0,
            "slot": "0",
            "type": "t_array(t_bytes32)dyn_storage"
          },
          {
            "astId": 1730,
            "contract": "contracts/Marketplace/Facets/ResalesFacet.sol:ResaleFacet",
            "label": "_positions",
            "offset": 0,
            "slot": "1",
            "type": "t_mapping(t_bytes32,t_uint256)"
          }
        ],
        "numberOfBytes": "64"
      },
      "t_struct(feeSplits)2345_storage": {
        "encoding": "inplace",
        "label": "struct feeSplits",
        "members": [
          {
            "astId": 2340,
            "contract": "contracts/Marketplace/Facets/ResalesFacet.sol:ResaleFacet",
            "label": "recipient",
            "offset": 0,
            "slot": "0",
            "type": "t_address"
          },
          {
            "astId": 2342,
            "contract": "contracts/Marketplace/Facets/ResalesFacet.sol:ResaleFacet",
            "label": "canBeContract",
            "offset": 20,
            "slot": "0",
            "type": "t_bool"
          },
          {
            "astId": 2344,
            "contract": "contracts/Marketplace/Facets/ResalesFacet.sol:ResaleFacet",
            "label": "percentage",
            "offset": 0,
            "slot": "1",
            "type": "t_uint256"
          }
        ],
        "numberOfBytes": "64"
      },
      "t_struct(mintingOffer)2358_storage": {
        "encoding": "inplace",
        "label": "struct mintingOffer",
        "members": [
          {
            "astId": 2347,
            "contract": "contracts/Marketplace/Facets/ResalesFacet.sol:ResaleFacet",
            "label": "erc721Address",
            "offset": 0,
            "slot": "0",
            "type": "t_address"
          },
          {
            "astId": 2349,
            "contract": "contracts/Marketplace/Facets/ResalesFacet.sol:ResaleFacet",
            "label": "nodeAddress",
            "offset": 0,
            "slot": "1",
            "type": "t_address"
          },
          {
            "astId": 2351,
            "contract": "contracts/Marketplace/Facets/ResalesFacet.sol:ResaleFacet",
            "label": "rangeIndex",
            "offset": 0,
            "slot": "2",
            "type": "t_uint256"
          },
          {
            "astId": 2355,
            "contract": "contracts/Marketplace/Facets/ResalesFacet.sol:ResaleFacet",
            "label": "fees",
            "offset": 0,
            "slot": "3",
            "type": "t_array(t_struct(feeSplits)2345_storage)dyn_storage"
          },
          {
            "astId": 2357,
            "contract": "contracts/Marketplace/Facets/ResalesFacet.sol:ResaleFacet",
            "label": "visible",
            "offset": 0,
            "slot": "4",
            "type": "t_bool"
          }
        ],
        "numberOfBytes": "160"
      },
      "t_uint16": {
        "encoding": "inplace",
        "label": "uint16",
        "numberOfBytes": "2"
      },
      "t_uint256": {
        "encoding": "inplace",
        "label": "uint256",
        "numberOfBytes": "32"
      }
    }
  }
}