{
  "address": "0x762BbcF6E6486fbee13a5CeE291F7aEE14f1CA77",
  "abi": [
    {
      "inputs": [
        {
          "internalType": "uint256",
          "name": "value",
          "type": "uint256"
        },
        {
          "internalType": "uint256",
          "name": "length",
          "type": "uint256"
        }
      ],
      "name": "StringsInsufficientHexLength",
      "type": "error"
    },
    {
      "anonymous": false,
      "inputs": [
        {
          "indexed": true,
          "internalType": "bytes32",
          "name": "role",
          "type": "bytes32"
        },
        {
          "indexed": true,
          "internalType": "bytes32",
          "name": "previousAdminRole",
          "type": "bytes32"
        },
        {
          "indexed": true,
          "internalType": "bytes32",
          "name": "newAdminRole",
          "type": "bytes32"
        }
      ],
      "name": "RoleAdminChanged",
      "type": "event"
    },
    {
      "anonymous": false,
      "inputs": [
        {
          "indexed": true,
          "internalType": "bytes32",
          "name": "role",
          "type": "bytes32"
        },
        {
          "indexed": true,
          "internalType": "address",
          "name": "account",
          "type": "address"
        },
        {
          "indexed": true,
          "internalType": "address",
          "name": "sender",
          "type": "address"
        }
      ],
      "name": "RoleGranted",
      "type": "event"
    },
    {
      "anonymous": false,
      "inputs": [
        {
          "indexed": true,
          "internalType": "bytes32",
          "name": "role",
          "type": "bytes32"
        },
        {
          "indexed": true,
          "internalType": "address",
          "name": "account",
          "type": "address"
        },
        {
          "indexed": true,
          "internalType": "address",
          "name": "sender",
          "type": "address"
        }
      ],
      "name": "RoleRevoked",
      "type": "event"
    },
    {
      "anonymous": false,
      "inputs": [
        {
          "indexed": false,
          "internalType": "address",
          "name": "erc721Address",
          "type": "address"
        },
        {
          "indexed": false,
          "internalType": "address",
          "name": "seller",
          "type": "address"
        },
        {
          "indexed": false,
          "internalType": "uint256",
          "name": "token",
          "type": "uint256"
        },
        {
          "indexed": false,
          "internalType": "uint256",
          "name": "tokenPrice",
          "type": "uint256"
        },
        {
          "indexed": false,
          "internalType": "uint256",
          "name": "offerId",
          "type": "uint256"
        }
      ],
      "name": "TokenOfferCreated",
      "type": "event"
    },
    {
      "anonymous": false,
      "inputs": [
        {
          "indexed": false,
          "internalType": "uint256",
          "name": "offerId",
          "type": "uint256"
        }
      ],
      "name": "TokenOfferDeleted",
      "type": "event"
    },
    {
      "anonymous": false,
      "inputs": [
        {
          "indexed": false,
          "internalType": "uint256",
          "name": "offerId",
          "type": "uint256"
        },
        {
          "indexed": false,
          "internalType": "uint256",
          "name": "newTokenPrice",
          "type": "uint256"
        }
      ],
      "name": "TokenOfferUpdated",
      "type": "event"
    },
    {
      "anonymous": false,
      "inputs": [
        {
          "indexed": false,
          "internalType": "address",
          "name": "erc721Address",
          "type": "address"
        },
        {
          "indexed": false,
          "internalType": "address",
          "name": "buyer",
          "type": "address"
        },
        {
          "indexed": false,
          "internalType": "address",
          "name": "seller",
          "type": "address"
        },
        {
          "indexed": false,
          "internalType": "uint256",
          "name": "token",
          "type": "uint256"
        },
        {
          "indexed": false,
          "internalType": "uint256",
          "name": "tokenPrice",
          "type": "uint256"
        }
      ],
      "name": "TokenSold",
      "type": "event"
    },
    {
      "inputs": [],
      "name": "MAINTAINER",
      "outputs": [
        {
          "internalType": "bytes32",
          "name": "",
          "type": "bytes32"
        }
      ],
      "stateMutability": "view",
      "type": "function"
    },
    {
      "inputs": [],
      "name": "RESALE_ADMIN",
      "outputs": [
        {
          "internalType": "bytes32",
          "name": "",
          "type": "bytes32"
        }
      ],
      "stateMutability": "view",
      "type": "function"
    },
    {
      "inputs": [
        {
          "internalType": "address",
          "name": "erc721",
          "type": "address"
        },
        {
          "internalType": "uint256",
          "name": "token",
          "type": "uint256"
        },
        {
          "internalType": "uint256",
          "name": "tokenPrice",
          "type": "uint256"
        },
        {
          "internalType": "address",
          "name": "nodeAddress",
          "type": "address"
        }
      ],
      "name": "createGasTokenOffer",
      "outputs": [],
      "stateMutability": "nonpayable",
      "type": "function"
    },
    {
      "inputs": [
        {
          "internalType": "uint256",
          "name": "offerIndex",
          "type": "uint256"
        }
      ],
      "name": "deleteGasTokenOffer",
      "outputs": [],
      "stateMutability": "nonpayable",
      "type": "function"
    },
    {
      "inputs": [
        {
          "internalType": "address",
          "name": "erc721",
          "type": "address"
        },
        {
          "internalType": "address",
          "name": "buyer",
          "type": "address"
        },
        {
          "internalType": "address",
          "name": "seller",
          "type": "address"
        },
        {
          "internalType": "uint256",
          "name": "token",
          "type": "uint256"
        },
        {
          "internalType": "uint256",
          "name": "tokenPrice",
          "type": "uint256"
        },
        {
          "internalType": "address",
          "name": "nodeAddress",
          "type": "address"
        }
      ],
      "name": "generateResaleHash",
      "outputs": [
        {
          "internalType": "bytes32",
          "name": "",
          "type": "bytes32"
        }
      ],
      "stateMutability": "view",
      "type": "function"
    },
    {
      "inputs": [
        {
          "internalType": "uint256",
          "name": "offerIndex",
          "type": "uint256"
        }
      ],
      "name": "getResaleOffer",
      "outputs": [
        {
          "components": [
            {
              "internalType": "address",
              "name": "erc721",
              "type": "address"
            },
            {
              "internalType": "address",
              "name": "buyer",
              "type": "address"
            },
            {
              "internalType": "address",
              "name": "seller",
              "type": "address"
            },
            {
              "internalType": "uint256",
              "name": "token",
              "type": "uint256"
            },
            {
              "internalType": "uint256",
              "name": "tokenPrice",
              "type": "uint256"
            },
            {
              "internalType": "address",
              "name": "nodeAddress",
              "type": "address"
            }
          ],
          "internalType": "struct ResaleStorage.resaleOffer",
          "name": "offer",
          "type": "tuple"
        }
      ],
      "stateMutability": "view",
      "type": "function"
    },
    {
      "inputs": [
        {
          "internalType": "bytes32",
          "name": "role",
          "type": "bytes32"
        }
      ],
      "name": "getRoleAdmin",
      "outputs": [
        {
          "internalType": "bytes32",
          "name": "",
          "type": "bytes32"
        }
      ],
      "stateMutability": "view",
      "type": "function"
    },
    {
      "inputs": [
        {
          "internalType": "bytes32",
          "name": "role",
          "type": "bytes32"
        },
        {
          "internalType": "uint256",
          "name": "index",
          "type": "uint256"
        }
      ],
      "name": "getRoleMember",
      "outputs": [
        {
          "internalType": "address",
          "name": "",
          "type": "address"
        }
      ],
      "stateMutability": "view",
      "type": "function"
    },
    {
      "inputs": [
        {
          "internalType": "bytes32",
          "name": "role",
          "type": "bytes32"
        }
      ],
      "name": "getRoleMemberCount",
      "outputs": [
        {
          "internalType": "uint256",
          "name": "",
          "type": "uint256"
        }
      ],
      "stateMutability": "view",
      "type": "function"
    },
    {
      "inputs": [
        {
          "internalType": "address",
          "name": "erc721",
          "type": "address"
        }
      ],
      "name": "getRoyalties",
      "outputs": [
        {
          "components": [
            {
              "internalType": "address",
              "name": "recipient",
              "type": "address"
            },
            {
              "internalType": "uint256",
              "name": "percentage",
              "type": "uint256"
            }
          ],
          "internalType": "struct ResaleStorage.feeSplits[]",
          "name": "",
          "type": "tuple[]"
        }
      ],
      "stateMutability": "view",
      "type": "function"
    },
    {
      "inputs": [
        {
          "internalType": "bytes32",
          "name": "role",
          "type": "bytes32"
        },
        {
          "internalType": "address",
          "name": "account",
          "type": "address"
        }
      ],
      "name": "grantRole",
      "outputs": [],
      "stateMutability": "nonpayable",
      "type": "function"
    },
    {
      "inputs": [
        {
          "internalType": "bytes32",
          "name": "role",
          "type": "bytes32"
        },
        {
          "internalType": "address",
          "name": "account",
          "type": "address"
        }
      ],
      "name": "hasRole",
      "outputs": [
        {
          "internalType": "bool",
          "name": "",
          "type": "bool"
        }
      ],
      "stateMutability": "view",
      "type": "function"
    },
    {
      "inputs": [
        {
          "internalType": "uint256",
          "name": "offerIndex",
          "type": "uint256"
        }
      ],
      "name": "purchaseGasTokenOffer",
      "outputs": [],
      "stateMutability": "payable",
      "type": "function"
    },
    {
      "inputs": [
        {
          "internalType": "address",
          "name": "erc721",
          "type": "address"
        },
        {
          "internalType": "address",
          "name": "buyer",
          "type": "address"
        },
        {
          "internalType": "address",
          "name": "seller",
          "type": "address"
        },
        {
          "internalType": "uint256",
          "name": "token",
          "type": "uint256"
        },
        {
          "internalType": "uint256",
          "name": "tokenPrice",
          "type": "uint256"
        },
        {
          "internalType": "address",
          "name": "nodeAddress",
          "type": "address"
        },
        {
          "internalType": "bytes",
          "name": "signature",
          "type": "bytes"
        }
      ],
      "name": "purchaseTokenOffer",
      "outputs": [],
      "stateMutability": "payable",
      "type": "function"
    },
    {
      "inputs": [
        {
          "internalType": "bytes32",
          "name": "role",
          "type": "bytes32"
        },
        {
          "internalType": "address",
          "name": "account",
          "type": "address"
        }
      ],
      "name": "renounceRole",
      "outputs": [],
      "stateMutability": "nonpayable",
      "type": "function"
    },
    {
      "inputs": [
        {
          "internalType": "bytes32",
          "name": "role",
          "type": "bytes32"
        },
        {
          "internalType": "address",
          "name": "account",
          "type": "address"
        }
      ],
      "name": "revokeRole",
      "outputs": [],
      "stateMutability": "nonpayable",
      "type": "function"
    },
    {
      "inputs": [
        {
          "internalType": "uint256",
          "name": "value",
          "type": "uint256"
        }
      ],
      "name": "setDecimalPow",
      "outputs": [],
      "stateMutability": "nonpayable",
      "type": "function"
    },
    {
      "inputs": [
        {
          "internalType": "uint256",
          "name": "value",
          "type": "uint256"
        }
      ],
      "name": "setPurchaseGracePeriod",
      "outputs": [],
      "stateMutability": "nonpayable",
      "type": "function"
    },
    {
      "inputs": [
        {
          "internalType": "address",
          "name": "erc721",
          "type": "address"
        },
        {
          "components": [
            {
              "internalType": "address",
              "name": "recipient",
              "type": "address"
            },
            {
              "internalType": "uint256",
              "name": "percentage",
              "type": "uint256"
            }
          ],
          "internalType": "struct ResaleStorage.feeSplits[]",
          "name": "fees",
          "type": "tuple[]"
        }
      ],
      "name": "setRoyalties",
      "outputs": [],
      "stateMutability": "nonpayable",
      "type": "function"
    },
    {
      "inputs": [
        {
          "internalType": "uint256",
          "name": "offerIndex",
          "type": "uint256"
        },
        {
          "internalType": "uint256",
          "name": "newPrice",
          "type": "uint256"
        }
      ],
      "name": "updateGasTokenOffer",
      "outputs": [],
      "stateMutability": "nonpayable",
      "type": "function"
    }
  ],
  "transactionHash": "0xf67bcdf2051a67f64215f5514a5ea9180181053fd3781557c23d5ae3a4981bba",
  "args": [],
  "numDeployments": 3,
  "solcInputHash": "e28d0114feab035ce27465409ff5f524",
  "bytecode": "0x6080604052348015600f57600080fd5b5061218e8061001f6000396000f3fe60806040526004361061011f5760003560e01c80636394f83f116100a0578063a9d9fdf711610064578063a9d9fdf7146103b3578063ca15c873146103d3578063d547741f146103f3578063da9bdab014610413578063ec71bce81461044757600080fd5b80636394f83f146102eb5780638e118fb31461030b5780638e6a912c1461032b5780639010d07c1461034b57806391d148541461038357600080fd5b806336568abe116100e757806336568abe1461020e578063415bbe111461022e57806346b51ea5146102a55780634fbbada9146102b857806358a59bf4146102cb57600080fd5b806314556a5614610124578063248a9ca31461015a578063295e6d51146101985780632aabb726146101ba5780632f2ff15d146101ee575b600080fd5b34801561013057600080fd5b5061014461013f366004611ba7565b610467565b6040516101519190611bcb565b60405180910390f35b34801561016657600080fd5b5061018a610175366004611c23565b60009081526020819052604090206001015490565b604051908152602001610151565b3480156101a457600080fd5b506101b86101b3366004611c23565b6104fd565b005b3480156101c657600080fd5b5061018a7fd88b35d7427a01a8e16d8a129535b4cf3150edf8d92c0a44dc1eba73bdaf18cb81565b3480156101fa57600080fd5b506101b8610209366004611c3c565b61061d565b34801561021a57600080fd5b506101b8610229366004611c3c565b610648565b34801561023a57600080fd5b5061024e610249366004611c23565b6106c6565b604051610151919081516001600160a01b039081168252602080840151821690830152604080840151821690830152606080840151908301526080808401519083015260a092830151169181019190915260c00190565b6101b86102b3366004611c82565b610799565b6101b86102c6366004611c23565b6108a4565b3480156102d757600080fd5b506101b86102e6366004611c23565b6109a3565b3480156102f757600080fd5b5061018a610306366004611d91565b6109f3565b34801561031757600080fd5b506101b8610326366004611e01565b610bcf565b34801561033757600080fd5b506101b8610346366004611e89565b610ddb565b34801561035757600080fd5b5061036b610366366004611ed3565b611002565b6040516001600160a01b039091168152602001610151565b34801561038f57600080fd5b506103a361039e366004611c3c565b611023565b6040519015158152602001610151565b3480156103bf57600080fd5b506101b86103ce366004611ed3565b61104c565b3480156103df57600080fd5b5061018a6103ee366004611c23565b611163565b3480156103ff57600080fd5b506101b861040e366004611c3c565b61117a565b34801561041f57600080fd5b5061018a7fc0f3378637414317b885402eb428659ba3cbc2330f4bee724741cd4aea9b8b4981565b34801561045357600080fd5b506101b8610462366004611c23565b6111a0565b60606000805160206121398339815191526001600160a01b0383166000908152602091825260408082208054825181860281018601909352808352919390929084015b828210156104f2576000848152602090819020604080518082019091526002850290910180546001600160a01b031682526001908101548284015290835290920191016104aa565b505050509050919050565b6000600080516020612139833981519152600401828154811061052257610522611ef5565b60009182526020909120600690910201805460038201546040516331a9108f60e11b8152600481019190915291925033916001600160a01b0390911690636352211e90602401602060405180830381865afa158015610585573d6000803e3d6000fd5b505050506040513d601f19601f820116820180604052508101906105a99190611f0b565b6001600160a01b0316146105d85760405162461bcd60e51b81526004016105cf90611f28565b60405180910390fd5b80546001600160a01b03191681556040518281527f70c4dc716c802fd35408b1dafc29461f503b2e745992d659412e9b75ec8a7db39060200160405180910390a15050565b60008281526020819052604090206001015461063981336111f0565b6106438383611254565b505050565b6001600160a01b03811633146106b85760405162461bcd60e51b815260206004820152602f60248201527f416363657373436f6e74726f6c3a2063616e206f6e6c792072656e6f756e636560448201526e103937b632b9903337b91039b2b63360891b60648201526084016105cf565b6106c282826112ec565b5050565b6040805160c081018252600080825260208201819052918101829052606081018290526080810182905260a08101919091527f232aa753920d876dd52c6464ae9dec228a3cfdca7d146885d71d13b28dc65b9a80548390811061072b5761072b611ef5565b60009182526020918290206040805160c081018252600690930290910180546001600160a01b0390811684526001820154811694840194909452600281015484169183019190915260038101546060830152600481015460808301526005015490911660a082015292915050565b60006107a98888888888886109f3565b90506000610804826040517f19457468657265756d205369676e6564204d6573736167653a0a3332000000006020820152603c8101829052600090605c01604051602081830303815290604052805190602001209050919050565b90506108347fc0f3378637414317b885402eb428659ba3cbc2330f4bee724741cd4aea9b8b4961039e8386611365565b6108805760405162461bcd60e51b815260206004820181905260248201527f526573616c653a20496e76616c6964207769746864726177207265717565737460448201526064016105cf565b61088c8986868a6113e4565b6108998987898b8961163b565b505050505050505050565b600060008051602061213983398151915260040182815481106108c9576108c9611ef5565b6000918252602090912060069091020160018101549091506001600160a01b0316156109375760405162461bcd60e51b815260206004820152601f60248201527f526573616c653a204f6666657220616c7265616479207075726368617365640060448201526064016105cf565b8054600482015460058301546002840154610962936001600160a01b039081169392811691166113e4565b805460038201546002830154600484015461098d936001600160a01b0390811693921690339061163b565b60010180546001600160a01b0319163317905550565b7fd88b35d7427a01a8e16d8a129535b4cf3150edf8d92c0a44dc1eba73bdaf18cb6109ce81336111f0565b507f232aa753920d876dd52c6464ae9dec228a3cfdca7d146885d71d13b28dc65b9855565b60405163e985e9c560e01b81526001600160a01b0385811660048301523060248301526000919088169063e985e9c590604401602060405180830381865afa158015610a43573d6000803e3d6000fd5b505050506040513d601f19601f82011682018060405250810190610a679190611f72565b80610ae3575060405163020604bf60e21b81526004810185905230906001600160a01b0389169063081812fc90602401602060405180830381865afa158015610ab4573d6000803e3d6000fd5b505050506040513d601f19601f82011682018060405250810190610ad89190611f0b565b6001600160a01b0316145b610b485760405162461bcd60e51b815260206004820152603060248201527f526573616c653a204d61726b6574706c6163652069736e277420617070726f7660448201526f656420666f72207472616e736665727360801b60648201526084016105cf565b868686868686610b56611700565b6040516bffffffffffffffffffffffff19606098891b8116602083015296881b8716603482015294871b86166048860152605c850193909352607c84019190915290931b909116609c82015260b081019190915260d0016040516020818303038152906040528051906020012090509695505050505050565b826000600080516020612139833981519152604051632474521560e21b81527f3c2519c4487d47714872f92cf90a50c25f5deaec2789dc2a497b1272df611db660048201523360248201529091506001600160a01b038316906391d1485490604401602060405180830381865afa158015610c4e573d6000803e3d6000fd5b505050506040513d601f19601f82011682018060405250810190610c729190611f72565b80610ce75750604051632474521560e21b8152600060048201523360248201526001600160a01b038316906391d1485490604401602060405180830381865afa158015610cc3573d6000803e3d6000fd5b505050506040513d601f19601f82011682018060405250810190610ce79190611f72565b610d595760405162461bcd60e51b815260206004820152603d60248201527f526573616c653a204f6e6c7920746865206f776e6572206f66206120636f6e7460448201527f726163742063616e2073657420637573746f6d20726f79616c7469657300000060648201526084016105cf565b60005b83811015610dd3576001600160a01b038616600090815260008051602061213983398151915260205260409020858583818110610d9b57610d9b611ef5565b835460018101855560009485526020909420604090910292909201926002029091019050610dc98282611f94565b5050600101610d5c565b505050505050565b6040516331a9108f60e11b81526004810184905233906001600160a01b03861690636352211e90602401602060405180830381865afa158015610e22573d6000803e3d6000fd5b505050506040513d601f19601f82011682018060405250810190610e469190611f0b565b6001600160a01b031614610e6c5760405162461bcd60e51b81526004016105cf90611f28565b7f232aa753920d876dd52c6464ae9dec228a3cfdca7d146885d71d13b28dc65b9a80546001808201835560008390527fa62c46310d289fa80c1ba7e34ec8c731947a3a6abd942dc427f9fc608de857e3600690920291820180546001600160a01b03199081166001600160a01b038a811691821784557fa62c46310d289fa80c1ba7e34ec8c731947a3a6abd942dc427f9fc608de857e5860180543390851681179091557fa62c46310d289fa80c1ba7e34ec8c731947a3a6abd942dc427f9fc608de857e687018b90557fa62c46310d289fa80c1ba7e34ec8c731947a3a6abd942dc427f9fc608de857e787018a90557fa62c46310d289fa80c1ba7e34ec8c731947a3a6abd942dc427f9fc608de857e8909601805490931690881617909155935490937f85d0909ac42cb4f28bdac7af71b9af534efa326b2256cd44097577545b18ca6e939092909188918891610fc49190611fe0565b604080516001600160a01b039687168152959094166020860152928401919091526060830152608082015260a0015b60405180910390a15050505050565b600082815260016020526040812061101a908361174c565b90505b92915050565b6000918252602082815260408084206001600160a01b0393909316845291905290205460ff1690565b6000600080516020612139833981519152600401838154811061107157611071611ef5565b60009182526020909120600690910201805460038201546040516331a9108f60e11b8152600481019190915291925033916001600160a01b0390911690636352211e90602401602060405180830381865afa1580156110d4573d6000803e3d6000fd5b505050506040513d601f19601f820116820180604052508101906110f89190611f0b565b6001600160a01b03161461111e5760405162461bcd60e51b81526004016105cf90611f28565b6004810182905560408051848152602081018490527f54dd5c7051d39cc05c9bc7e0e3f0ef69f1b1edd0d78ac5c554af5d4aee34577b910160405180910390a1505050565b600081815260016020526040812061101d90611758565b60008281526020819052604090206001015461119681336111f0565b61064383836112ec565b7fd88b35d7427a01a8e16d8a129535b4cf3150edf8d92c0a44dc1eba73bdaf18cb6111cb81336111f0565b507f232aa753920d876dd52c6464ae9dec228a3cfdca7d146885d71d13b28dc65b9955565b6111fa8282611023565b6106c257611212816001600160a01b03166014611762565b61121d836020611762565b60405160200161122e929190612017565b60408051601f198184030181529082905262461bcd60e51b82526105cf9160040161208c565b61125e8282611023565b6106c2576000828152602081815260408083206001600160a01b03851684529091529020805460ff191660011790556112943390565b6001600160a01b0316816001600160a01b0316837f2f8788117e7eff1d82e926ec794901d17c78024a50270940304540a733656f0d60405160405180910390a4600082815260016020526040902061064390826118e2565b6112f68282611023565b156106c2576000828152602081815260408083206001600160a01b0385168085529252808320805460ff1916905551339285917ff6391f5c32d9c69d2a47ea670b442974b53935d1edc7fd64eb21e047a839171b9190a4600082815260016020526040902061064390826118f7565b6000806000806113748561190c565b6040805160008152602081018083528b905260ff8316918101919091526060810184905260808101839052929550909350915060019060a0016020604051602081039080840390855afa1580156113cf573d6000803e3d6000fd5b5050604051601f190151979650505050505050565b6001600160a01b038416600090815260008051602061213983398151915260205260409020348411156114595760405162461bcd60e51b815260206004820152601b60248201527f526573616c653a20496e73756666696369656e742066756e647321000000000060448201526064016105cf565b8360006114668234611fe0565b111561147f5761147f3361147a8734611fe0565b611980565b6003546000906114909060646120bf565b60045461149d90886120bf565b6114a791906120d6565b90506114b38582611980565b806114be8184611fe0565b6003549093506114cf9060646120bf565b6005546114dc90896120bf565b6114e691906120d6565b6006549092506114ff906001600160a01b031683611980565b61150982826120f8565b90506115158284611fe0565b925060005b84548110156115c1576003546115319060646120bf565b85828154811061154357611543611ef5565b9060005260206000209060020201600101548961156091906120bf565b61156a91906120d6565b92506115a185828154811061158157611581611ef5565b60009182526020909120600290910201546001600160a01b031684611980565b6115ab83836120f8565b91506115b78385611fe0565b935060010161151a565b506115cc8584611980565b6115d683826120f8565b90508681146116315760405162461bcd60e51b815260206004820152602160248201527f526573616c653a204572726f72207472616e7366657272696e672066756e64736044820152602160f81b60648201526084016105cf565b5050505050505050565b6040516323b872dd60e01b81526001600160a01b0384811660048301528381166024830152604482018690528616906323b872dd90606401600060405180830381600087803b15801561168d57600080fd5b505af11580156116a1573d6000803e3d6000fd5b5050604080516001600160a01b03808a168252808716602083015287169181019190915260608101879052608081018490527f2f0996da6c077604b5bde68e82fc6389b549462f3d448d4bda60ad38e1a73986925060a0019050610ff3565b600061170d6064426120d6565b6117189060646120bf565b7f232aa753920d876dd52c6464ae9dec228a3cfdca7d146885d71d13b28dc65b985490915061174790826120f8565b905090565b600061101a8383611a23565b600061101d825490565b60608260006117728460026120bf565b61177d9060026120f8565b67ffffffffffffffff81111561179557611795611c6c565b6040519080825280601f01601f1916602001820160405280156117bf576020820181803683370190505b509050600360fc1b816000815181106117da576117da611ef5565b60200101906001600160f81b031916908160001a905350600f60fb1b8160018151811061180957611809611ef5565b60200101906001600160f81b031916908160001a905350600061182d8560026120bf565b6118389060016120f8565b90505b60018111156118b0576f181899199a1a9b1b9c1cb0b131b232b360811b83600f166010811061186c5761186c611ef5565b1a60f81b82828151811061188257611882611ef5565b60200101906001600160f81b031916908160001a90535060049290921c916118a98161210b565b905061183b565b5081156118da5760405163e22e27eb60e01b815260048101869052602481018590526044016105cf565b949350505050565b600061101a836001600160a01b038416611a4d565b600061101a836001600160a01b038416611a9c565b600080600083516041146119625760405162461bcd60e51b815260206004820181905260248201527f526573616c653a20696e76616c6964207369676e6174757265206c656e67746860448201526064016105cf565b50505060208101516040820151606090920151909260009190911a90565b6000826001600160a01b03168260405160006040518083038185875af1925050503d80600081146119cd576040519150601f19603f3d011682016040523d82523d6000602084013e6119d2565b606091505b50509050806106435760405162461bcd60e51b815260206004820152601760248201527f526573616c653a205472616e73666572206661696c656400000000000000000060448201526064016105cf565b6000826000018281548110611a3a57611a3a611ef5565b9060005260206000200154905092915050565b6000818152600183016020526040812054611a945750815460018181018455600084815260208082209093018490558454848252828601909352604090209190915561101d565b50600061101d565b60008181526001830160205260408120548015611b85576000611ac0600183611fe0565b8554909150600090611ad490600190611fe0565b9050808214611b39576000866000018281548110611af457611af4611ef5565b9060005260206000200154905080876000018481548110611b1757611b17611ef5565b6000918252602080832090910192909255918252600188019052604090208390555b8554869080611b4a57611b4a612122565b60019003818190600052602060002001600090559055856001016000868152602001908152602001600020600090556001935050505061101d565b600091505061101d565b6001600160a01b0381168114611ba457600080fd5b50565b600060208284031215611bb957600080fd5b8135611bc481611b8f565b9392505050565b602080825282518282018190526000919060409081850190868401855b82811015611c1657815180516001600160a01b03168552860151868501529284019290850190600101611be8565b5091979650505050505050565b600060208284031215611c3557600080fd5b5035919050565b60008060408385031215611c4f57600080fd5b823591506020830135611c6181611b8f565b809150509250929050565b634e487b7160e01b600052604160045260246000fd5b600080600080600080600060e0888a031215611c9d57600080fd5b8735611ca881611b8f565b96506020880135611cb881611b8f565b95506040880135611cc881611b8f565b9450606088013593506080880135925060a0880135611ce681611b8f565b915060c088013567ffffffffffffffff80821115611d0357600080fd5b818a0191508a601f830112611d1757600080fd5b813581811115611d2957611d29611c6c565b604051601f8201601f19908116603f01168101908382118183101715611d5157611d51611c6c565b816040528281528d6020848701011115611d6a57600080fd5b82602086016020830137600060208483010152809550505050505092959891949750929550565b60008060008060008060c08789031215611daa57600080fd5b8635611db581611b8f565b95506020870135611dc581611b8f565b94506040870135611dd581611b8f565b9350606087013592506080870135915060a0870135611df381611b8f565b809150509295509295509295565b600080600060408486031215611e1657600080fd5b8335611e2181611b8f565b9250602084013567ffffffffffffffff80821115611e3e57600080fd5b818601915086601f830112611e5257600080fd5b813581811115611e6157600080fd5b8760208260061b8501011115611e7657600080fd5b6020830194508093505050509250925092565b60008060008060808587031215611e9f57600080fd5b8435611eaa81611b8f565b935060208501359250604085013591506060850135611ec881611b8f565b939692955090935050565b60008060408385031215611ee657600080fd5b50508035926020909101359150565b634e487b7160e01b600052603260045260246000fd5b600060208284031215611f1d57600080fd5b8151611bc481611b8f565b6020808252602a908201527f526573616c653a204e6f74207468652063757272656e74206f776e6572206f66604082015269103a3432903a37b5b2b760b11b606082015260800190565b600060208284031215611f8457600080fd5b81518015158114611bc457600080fd5b8135611f9f81611b8f565b81546001600160a01b0319166001600160a01b03919091161781556020919091013560019190910155565b634e487b7160e01b600052601160045260246000fd5b8181038181111561101d5761101d611fca565b60005b8381101561200e578181015183820152602001611ff6565b50506000910152565b7f416363657373436f6e74726f6c3a206163636f756e742000000000000000000081526000835161204f816017850160208801611ff3565b7001034b99036b4b9b9b4b733903937b6329607d1b6017918401918201528351612080816028840160208801611ff3565b01602801949350505050565b60208152600082518060208401526120ab816040850160208701611ff3565b601f01601f19169190910160400192915050565b808202811582820484141761101d5761101d611fca565b6000826120f357634e487b7160e01b600052601260045260246000fd5b500490565b8082018082111561101d5761101d611fca565b60008161211a5761211a611fca565b506000190190565b634e487b7160e01b600052603160045260246000fdfe232aa753920d876dd52c6464ae9dec228a3cfdca7d146885d71d13b28dc65b96a264697066735822122079544ba0b291612d595c2de6008ee6410ff8f604e9c0e68c786cab4e56af8e0664736f6c63430008190033",
  "devdoc": {
    "author": "Juan M. Sanchez M.",
    "details": "Uses signed messages for gasless offer postings",
    "errors": {
      "StringsInsufficientHexLength(uint256,uint256)": [
        {
          "details": "The `value` string doesn't fit in the specified `length`."
        }
      ]
    },
    "events": {
      "RoleAdminChanged(bytes32,bytes32,bytes32)": {
        "params": {
          "newAdminRole": "contains the new status of the role",
          "previousAdminRole": "contains the previous status of the role",
          "role": "Contains the role we want to update"
        }
      },
      "RoleGranted(bytes32,address,address)": {
        "params": {
          "account": "contains the address that we want to grant the role",
          "role": "Contains the role we want to update",
          "sender": "contains the address that is changing the role of the account"
        }
      },
      "RoleRevoked(bytes32,address,address)": {
        "params": {
          "account": "contains the address that we want to revoke the role",
          "role": "Contains the role we want to update",
          "sender": "contains the address that is changing the role of the account"
        }
      }
    },
    "kind": "dev",
    "methods": {
      "getRoleAdmin(bytes32)": {
        "params": {
          "role": "Contains the role that we want to verify"
        },
        "returns": {
          "_0": "bytes that indicates if an account has or not an admin role"
        }
      },
      "getRoleMember(bytes32,uint256)": {
        "params": {
          "index": "Contains the indexed position to verify inside the role members list",
          "role": "Contains the role that we want to verify"
        },
        "returns": {
          "_0": "address that indicates the address indexed in that position"
        }
      },
      "getRoleMemberCount(bytes32)": {
        "params": {
          "role": "Contains the role that we want to verify"
        },
        "returns": {
          "_0": "uint256 that indicates the total accounts with that role"
        }
      },
      "grantRole(bytes32,address)": {
        "details": "This function is only available to an account with an Admin role",
        "params": {
          "account": "Contains the account that has the role we want to update",
          "role": "Contains the role that we want to grant"
        }
      },
      "hasRole(bytes32,address)": {
        "params": {
          "account": "Contains the account address thay we want to verify",
          "role": "Contains the role that we want to verify"
        },
        "returns": {
          "_0": "bool that indicates if an account has or not a role"
        }
      },
      "renounceRole(bytes32,address)": {
        "details": "Currently you can only renounce to your own roles",
        "params": {
          "account": "Contains the account that has the role we want to update",
          "role": "Contains the role to remove from our account"
        }
      },
      "revokeRole(bytes32,address)": {
        "details": "This function is only available to an account with an Admin role",
        "params": {
          "account": "Contains the account that has the role we want to update",
          "role": "Contains the role that we want to revoke"
        }
      }
    },
    "title": "RAIR Diamond - Resale Marketplace facet",
    "version": 1
  },
  "userdoc": {
    "events": {
      "RoleAdminChanged(bytes32,bytes32,bytes32)": {
        "notice": "This event stores in the blockchain when we change an admin role"
      },
      "RoleGranted(bytes32,address,address)": {
        "notice": "This event stores in the blockchain when we grant a role"
      },
      "RoleRevoked(bytes32,address,address)": {
        "notice": "This event stores in the blockchain when we revoke a role"
      }
    },
    "kind": "user",
    "methods": {
      "getRoleAdmin(bytes32)": {
        "notice": "Allow us to check the admin role that contains a role"
      },
      "getRoleMember(bytes32,uint256)": {
        "notice": "Allow us to check the address of an indexed position for the role list"
      },
      "getRoleMemberCount(bytes32)": {
        "notice": "Allow us to check total members that has an selected role"
      },
      "grantRole(bytes32,address)": {
        "notice": "Allow us to grant a role to an account"
      },
      "hasRole(bytes32,address)": {
        "notice": "Allow us to check the if and account has a selected role"
      },
      "renounceRole(bytes32,address)": {
        "notice": "Allow us to renounce to a role"
      },
      "revokeRole(bytes32,address)": {
        "notice": "Allow us to revoke a role to an account"
      }
    },
    "notice": "Facet in charge of transfering NFTs and funds",
    "version": 1
  },
  "storageLayout": {
    "storage": [
      {
        "astId": 2420,
        "contract": "contracts/Marketplace/Facets/ResalesFacet.sol:ResaleFacet",
        "label": "s",
        "offset": 0,
        "slot": "0",
        "type": "t_struct(AppStorage)2401_storage"
      }
    ],
    "types": {
      "t_address": {
        "encoding": "inplace",
        "label": "address",
        "numberOfBytes": "20"
      },
      "t_array(t_bytes32)dyn_storage": {
        "base": "t_bytes32",
        "encoding": "dynamic_array",
        "label": "bytes32[]",
        "numberOfBytes": "32"
      },
      "t_array(t_struct(feeSplits)2345_storage)dyn_storage": {
        "base": "t_struct(feeSplits)2345_storage",
        "encoding": "dynamic_array",
        "label": "struct feeSplits[]",
        "numberOfBytes": "32"
      },
      "t_array(t_struct(mintingOffer)2358_storage)dyn_storage": {
        "base": "t_struct(mintingOffer)2358_storage",
        "encoding": "dynamic_array",
        "label": "struct mintingOffer[]",
        "numberOfBytes": "32"
      },
      "t_array(t_uint256)dyn_storage": {
        "base": "t_uint256",
        "encoding": "dynamic_array",
        "label": "uint256[]",
        "numberOfBytes": "32"
      },
      "t_bool": {
        "encoding": "inplace",
        "label": "bool",
        "numberOfBytes": "1"
      },
      "t_bytes32": {
        "encoding": "inplace",
        "label": "bytes32",
        "numberOfBytes": "32"
      },
      "t_mapping(t_address,t_array(t_uint256)dyn_storage)": {
        "encoding": "mapping",
        "key": "t_address",
        "label": "mapping(address => uint256[])",
        "numberOfBytes": "32",
        "value": "t_array(t_uint256)dyn_storage"
      },
      "t_mapping(t_address,t_bool)": {
        "encoding": "mapping",
        "key": "t_address",
        "label": "mapping(address => bool)",
        "numberOfBytes": "32",
        "value": "t_bool"
      },
      "t_mapping(t_address,t_mapping(t_uint256,t_uint256))": {
        "encoding": "mapping",
        "key": "t_address",
        "label": "mapping(address => mapping(uint256 => uint256))",
        "numberOfBytes": "32",
        "value": "t_mapping(t_uint256,t_uint256)"
      },
      "t_mapping(t_bytes32,t_struct(AddressSet)2046_storage)": {
        "encoding": "mapping",
        "key": "t_bytes32",
        "label": "mapping(bytes32 => struct EnumerableSet.AddressSet)",
        "numberOfBytes": "32",
        "value": "t_struct(AddressSet)2046_storage"
      },
      "t_mapping(t_bytes32,t_struct(RoleData)2365_storage)": {
        "encoding": "mapping",
        "key": "t_bytes32",
        "label": "mapping(bytes32 => struct RoleData)",
        "numberOfBytes": "32",
        "value": "t_struct(RoleData)2365_storage"
      },
      "t_mapping(t_bytes32,t_uint256)": {
        "encoding": "mapping",
        "key": "t_bytes32",
        "label": "mapping(bytes32 => uint256)",
        "numberOfBytes": "32",
        "value": "t_uint256"
      },
      "t_mapping(t_uint256,t_uint256)": {
        "encoding": "mapping",
        "key": "t_uint256",
        "label": "mapping(uint256 => uint256)",
        "numberOfBytes": "32",
        "value": "t_uint256"
      },
      "t_struct(AddressSet)2046_storage": {
        "encoding": "inplace",
        "label": "struct EnumerableSet.AddressSet",
        "members": [
          {
            "astId": 2045,
            "contract": "contracts/Marketplace/Facets/ResalesFacet.sol:ResaleFacet",
            "label": "_inner",
            "offset": 0,
            "slot": "0",
            "type": "t_struct(Set)1731_storage"
          }
        ],
        "numberOfBytes": "64"
      },
      "t_struct(AppStorage)2401_storage": {
        "encoding": "inplace",
        "label": "struct AppStorage",
        "members": [
          {
            "astId": 2370,
            "contract": "contracts/Marketplace/Facets/ResalesFacet.sol:ResaleFacet",
            "label": "_roles",
            "offset": 0,
            "slot": "0",
            "type": "t_mapping(t_bytes32,t_struct(RoleData)2365_storage)"
          },
          {
            "astId": 2375,
            "contract": "contracts/Marketplace/Facets/ResalesFacet.sol:ResaleFacet",
            "label": "_roleMembers",
            "offset": 0,
            "slot": "1",
            "type": "t_mapping(t_bytes32,t_struct(AddressSet)2046_storage)"
          },
          {
            "astId": 2377,
            "contract": "contracts/Marketplace/Facets/ResalesFacet.sol:ResaleFacet",
            "label": "decimals",
            "offset": 0,
            "slot": "2",
            "type": "t_uint16"
          },
          {
            "astId": 2379,
            "contract": "contracts/Marketplace/Facets/ResalesFacet.sol:ResaleFacet",
            "label": "decimalPow",
            "offset": 0,
            "slot": "3",
            "type": "t_uint256"
          },
          {
            "astId": 2381,
            "contract": "contracts/Marketplace/Facets/ResalesFacet.sol:ResaleFacet",
            "label": "nodeFee",
            "offset": 0,
            "slot": "4",
            "type": "t_uint256"
          },
          {
            "astId": 2383,
            "contract": "contracts/Marketplace/Facets/ResalesFacet.sol:ResaleFacet",
            "label": "treasuryFee",
            "offset": 0,
            "slot": "5",
            "type": "t_uint256"
          },
          {
            "astId": 2385,
            "contract": "contracts/Marketplace/Facets/ResalesFacet.sol:ResaleFacet",
            "label": "treasuryAddress",
            "offset": 0,
            "slot": "6",
            "type": "t_address"
          },
          {
            "astId": 2389,
            "contract": "contracts/Marketplace/Facets/ResalesFacet.sol:ResaleFacet",
            "label": "mintingOffers",
            "offset": 0,
            "slot": "7",
            "type": "t_array(t_struct(mintingOffer)2358_storage)dyn_storage"
          },
          {
            "astId": 2395,
            "contract": "contracts/Marketplace/Facets/ResalesFacet.sol:ResaleFacet",
            "label": "addressToRangeOffer",
            "offset": 0,
            "slot": "8",
            "type": "t_mapping(t_address,t_mapping(t_uint256,t_uint256))"
          },
          {
            "astId": 2400,
            "contract": "contracts/Marketplace/Facets/ResalesFacet.sol:ResaleFacet",
            "label": "addressToOffers",
            "offset": 0,
            "slot": "9",
            "type": "t_mapping(t_address,t_array(t_uint256)dyn_storage)"
          }
        ],
        "numberOfBytes": "320"
      },
      "t_struct(RoleData)2365_storage": {
        "encoding": "inplace",
        "label": "struct RoleData",
        "members": [
          {
            "astId": 2362,
            "contract": "contracts/Marketplace/Facets/ResalesFacet.sol:ResaleFacet",
            "label": "members",
            "offset": 0,
            "slot": "0",
            "type": "t_mapping(t_address,t_bool)"
          },
          {
            "astId": 2364,
            "contract": "contracts/Marketplace/Facets/ResalesFacet.sol:ResaleFacet",
            "label": "adminRole",
            "offset": 0,
            "slot": "1",
            "type": "t_bytes32"
          }
        ],
        "numberOfBytes": "64"
      },
      "t_struct(Set)1731_storage": {
        "encoding": "inplace",
        "label": "struct EnumerableSet.Set",
        "members": [
          {
            "astId": 1726,
            "contract": "contracts/Marketplace/Facets/ResalesFacet.sol:ResaleFacet",
            "label": "_values",
            "offset": 0,
            "slot": "0",
            "type": "t_array(t_bytes32)dyn_storage"
          },
          {
            "astId": 1730,
            "contract": "contracts/Marketplace/Facets/ResalesFacet.sol:ResaleFacet",
            "label": "_positions",
            "offset": 0,
            "slot": "1",
            "type": "t_mapping(t_bytes32,t_uint256)"
          }
        ],
        "numberOfBytes": "64"
      },
      "t_struct(feeSplits)2345_storage": {
        "encoding": "inplace",
        "label": "struct feeSplits",
        "members": [
          {
            "astId": 2340,
            "contract": "contracts/Marketplace/Facets/ResalesFacet.sol:ResaleFacet",
            "label": "recipient",
            "offset": 0,
            "slot": "0",
            "type": "t_address"
          },
          {
            "astId": 2342,
            "contract": "contracts/Marketplace/Facets/ResalesFacet.sol:ResaleFacet",
            "label": "canBeContract",
            "offset": 20,
            "slot": "0",
            "type": "t_bool"
          },
          {
            "astId": 2344,
            "contract": "contracts/Marketplace/Facets/ResalesFacet.sol:ResaleFacet",
            "label": "percentage",
            "offset": 0,
            "slot": "1",
            "type": "t_uint256"
          }
        ],
        "numberOfBytes": "64"
      },
      "t_struct(mintingOffer)2358_storage": {
        "encoding": "inplace",
        "label": "struct mintingOffer",
        "members": [
          {
            "astId": 2347,
            "contract": "contracts/Marketplace/Facets/ResalesFacet.sol:ResaleFacet",
            "label": "erc721Address",
            "offset": 0,
            "slot": "0",
            "type": "t_address"
          },
          {
            "astId": 2349,
            "contract": "contracts/Marketplace/Facets/ResalesFacet.sol:ResaleFacet",
            "label": "nodeAddress",
            "offset": 0,
            "slot": "1",
            "type": "t_address"
          },
          {
            "astId": 2351,
            "contract": "contracts/Marketplace/Facets/ResalesFacet.sol:ResaleFacet",
            "label": "rangeIndex",
            "offset": 0,
            "slot": "2",
            "type": "t_uint256"
          },
          {
            "astId": 2355,
            "contract": "contracts/Marketplace/Facets/ResalesFacet.sol:ResaleFacet",
            "label": "fees",
            "offset": 0,
            "slot": "3",
            "type": "t_array(t_struct(feeSplits)2345_storage)dyn_storage"
          },
          {
            "astId": 2357,
            "contract": "contracts/Marketplace/Facets/ResalesFacet.sol:ResaleFacet",
            "label": "visible",
            "offset": 0,
            "slot": "4",
            "type": "t_bool"
          }
        ],
        "numberOfBytes": "160"
      },
      "t_uint16": {
        "encoding": "inplace",
        "label": "uint16",
        "numberOfBytes": "2"
      },
      "t_uint256": {
        "encoding": "inplace",
        "label": "uint256",
        "numberOfBytes": "32"
      }
    }
  }
}