{
  "address": "0x80847414d3B4ac35d6b078501Bad7a7E2367a931",
  "abi": [
    {
      "inputs": [
        {
          "internalType": "uint256",
          "name": "value",
          "type": "uint256"
        },
        {
          "internalType": "uint256",
          "name": "length",
          "type": "uint256"
        }
      ],
      "name": "StringsInsufficientHexLength",
      "type": "error"
    },
    {
      "anonymous": false,
      "inputs": [
        {
          "indexed": true,
          "internalType": "bytes32",
          "name": "role",
          "type": "bytes32"
        },
        {
          "indexed": true,
          "internalType": "bytes32",
          "name": "previousAdminRole",
          "type": "bytes32"
        },
        {
          "indexed": true,
          "internalType": "bytes32",
          "name": "newAdminRole",
          "type": "bytes32"
        }
      ],
      "name": "RoleAdminChanged",
      "type": "event"
    },
    {
      "anonymous": false,
      "inputs": [
        {
          "indexed": true,
          "internalType": "bytes32",
          "name": "role",
          "type": "bytes32"
        },
        {
          "indexed": true,
          "internalType": "address",
          "name": "account",
          "type": "address"
        },
        {
          "indexed": true,
          "internalType": "address",
          "name": "sender",
          "type": "address"
        }
      ],
      "name": "RoleGranted",
      "type": "event"
    },
    {
      "anonymous": false,
      "inputs": [
        {
          "indexed": true,
          "internalType": "bytes32",
          "name": "role",
          "type": "bytes32"
        },
        {
          "indexed": true,
          "internalType": "address",
          "name": "account",
          "type": "address"
        },
        {
          "indexed": true,
          "internalType": "address",
          "name": "sender",
          "type": "address"
        }
      ],
      "name": "RoleRevoked",
      "type": "event"
    },
    {
      "anonymous": false,
      "inputs": [
        {
          "indexed": false,
          "internalType": "address",
          "name": "erc721Address",
          "type": "address"
        },
        {
          "indexed": false,
          "internalType": "address",
          "name": "buyer",
          "type": "address"
        },
        {
          "indexed": false,
          "internalType": "address",
          "name": "seller",
          "type": "address"
        },
        {
          "indexed": false,
          "internalType": "uint256",
          "name": "token",
          "type": "uint256"
        },
        {
          "indexed": false,
          "internalType": "uint256",
          "name": "tokenPrice",
          "type": "uint256"
        }
      ],
      "name": "TokenSold",
      "type": "event"
    },
    {
      "inputs": [],
      "name": "MAINTAINER",
      "outputs": [
        {
          "internalType": "bytes32",
          "name": "",
          "type": "bytes32"
        }
      ],
      "stateMutability": "view",
      "type": "function"
    },
    {
      "inputs": [],
      "name": "RESALE_ADMIN",
      "outputs": [
        {
          "internalType": "bytes32",
          "name": "",
          "type": "bytes32"
        }
      ],
      "stateMutability": "view",
      "type": "function"
    },
    {
      "inputs": [
        {
          "internalType": "address",
          "name": "erc721",
          "type": "address"
        },
        {
          "internalType": "address",
          "name": "buyer",
          "type": "address"
        },
        {
          "internalType": "address",
          "name": "seller",
          "type": "address"
        },
        {
          "internalType": "uint256",
          "name": "token",
          "type": "uint256"
        },
        {
          "internalType": "uint256",
          "name": "tokenPrice",
          "type": "uint256"
        },
        {
          "internalType": "address",
          "name": "nodeAddress",
          "type": "address"
        }
      ],
      "name": "generateResaleHash",
      "outputs": [
        {
          "internalType": "bytes32",
          "name": "",
          "type": "bytes32"
        }
      ],
      "stateMutability": "view",
      "type": "function"
    },
    {
      "inputs": [
        {
          "internalType": "bytes32",
          "name": "role",
          "type": "bytes32"
        }
      ],
      "name": "getRoleAdmin",
      "outputs": [
        {
          "internalType": "bytes32",
          "name": "",
          "type": "bytes32"
        }
      ],
      "stateMutability": "view",
      "type": "function"
    },
    {
      "inputs": [
        {
          "internalType": "bytes32",
          "name": "role",
          "type": "bytes32"
        },
        {
          "internalType": "uint256",
          "name": "index",
          "type": "uint256"
        }
      ],
      "name": "getRoleMember",
      "outputs": [
        {
          "internalType": "address",
          "name": "",
          "type": "address"
        }
      ],
      "stateMutability": "view",
      "type": "function"
    },
    {
      "inputs": [
        {
          "internalType": "bytes32",
          "name": "role",
          "type": "bytes32"
        }
      ],
      "name": "getRoleMemberCount",
      "outputs": [
        {
          "internalType": "uint256",
          "name": "",
          "type": "uint256"
        }
      ],
      "stateMutability": "view",
      "type": "function"
    },
    {
      "inputs": [
        {
          "internalType": "address",
          "name": "erc721",
          "type": "address"
        }
      ],
      "name": "getRoyalties",
      "outputs": [
        {
          "components": [
            {
              "internalType": "address",
              "name": "recipient",
              "type": "address"
            },
            {
              "internalType": "uint256",
              "name": "percentage",
              "type": "uint256"
            }
          ],
          "internalType": "struct ResaleStorage.feeSplits[]",
          "name": "",
          "type": "tuple[]"
        }
      ],
      "stateMutability": "view",
      "type": "function"
    },
    {
      "inputs": [
        {
          "internalType": "bytes32",
          "name": "role",
          "type": "bytes32"
        },
        {
          "internalType": "address",
          "name": "account",
          "type": "address"
        }
      ],
      "name": "grantRole",
      "outputs": [],
      "stateMutability": "nonpayable",
      "type": "function"
    },
    {
      "inputs": [
        {
          "internalType": "bytes32",
          "name": "role",
          "type": "bytes32"
        },
        {
          "internalType": "address",
          "name": "account",
          "type": "address"
        }
      ],
      "name": "hasRole",
      "outputs": [
        {
          "internalType": "bool",
          "name": "",
          "type": "bool"
        }
      ],
      "stateMutability": "view",
      "type": "function"
    },
    {
      "inputs": [
        {
          "internalType": "address",
          "name": "erc721",
          "type": "address"
        },
        {
          "internalType": "address",
          "name": "buyer",
          "type": "address"
        },
        {
          "internalType": "address",
          "name": "seller",
          "type": "address"
        },
        {
          "internalType": "uint256",
          "name": "token",
          "type": "uint256"
        },
        {
          "internalType": "uint256",
          "name": "tokenPrice",
          "type": "uint256"
        },
        {
          "internalType": "address",
          "name": "nodeAddress",
          "type": "address"
        },
        {
          "internalType": "bytes",
          "name": "signature",
          "type": "bytes"
        }
      ],
      "name": "purchaseTokenOffer",
      "outputs": [],
      "stateMutability": "payable",
      "type": "function"
    },
    {
      "inputs": [
        {
          "internalType": "bytes32",
          "name": "role",
          "type": "bytes32"
        },
        {
          "internalType": "address",
          "name": "account",
          "type": "address"
        }
      ],
      "name": "renounceRole",
      "outputs": [],
      "stateMutability": "nonpayable",
      "type": "function"
    },
    {
      "inputs": [
        {
          "internalType": "bytes32",
          "name": "role",
          "type": "bytes32"
        },
        {
          "internalType": "address",
          "name": "account",
          "type": "address"
        }
      ],
      "name": "revokeRole",
      "outputs": [],
      "stateMutability": "nonpayable",
      "type": "function"
    },
    {
      "inputs": [
        {
          "internalType": "uint256",
          "name": "value",
          "type": "uint256"
        }
      ],
      "name": "setDecimalPow",
      "outputs": [],
      "stateMutability": "nonpayable",
      "type": "function"
    },
    {
      "inputs": [
        {
          "internalType": "uint256",
          "name": "value",
          "type": "uint256"
        }
      ],
      "name": "setPurchaseGracePeriod",
      "outputs": [],
      "stateMutability": "nonpayable",
      "type": "function"
    },
    {
      "inputs": [
        {
          "internalType": "address",
          "name": "erc721",
          "type": "address"
        },
        {
          "components": [
            {
              "internalType": "address",
              "name": "recipient",
              "type": "address"
            },
            {
              "internalType": "uint256",
              "name": "percentage",
              "type": "uint256"
            }
          ],
          "internalType": "struct ResaleStorage.feeSplits[]",
          "name": "fees",
          "type": "tuple[]"
        }
      ],
      "name": "setRoyalties",
      "outputs": [],
      "stateMutability": "nonpayable",
      "type": "function"
    }
  ],
  "transactionHash": "0x3193bd3f45d8a0796355b895a632deee55ea6b946bbe41939ec208e2b635d621",
  "args": [],
  "numDeployments": 1,
  "solcInputHash": "48bff27b17b8e4de37ab8f58194aab78",
  "bytecode": "0x6080604052348015600f57600080fd5b506119c48061001f6000396000f3fe6080604052600436106100e85760003560e01c80636394f83f1161008a578063ca15c87311610059578063ca15c873146102b2578063d547741f146102d2578063da9bdab0146102f2578063ec71bce81461032657600080fd5b80636394f83f1461020a5780638e118fb31461022a5780639010d07c1461024a57806391d148541461028257600080fd5b80632f2ff15d116100c65780632f2ff15d1461019557806336568abe146101b757806346b51ea5146101d757806358a59bf4146101ea57600080fd5b806314556a56146100ed578063248a9ca3146101235780632aabb72614610161575b600080fd5b3480156100f957600080fd5b5061010d610108366004611471565b610346565b60405161011a9190611495565b60405180910390f35b34801561012f57600080fd5b5061015361013e3660046114ed565b60009081526020819052604090206001015490565b60405190815260200161011a565b34801561016d57600080fd5b506101537fd88b35d7427a01a8e16d8a129535b4cf3150edf8d92c0a44dc1eba73bdaf18cb81565b3480156101a157600080fd5b506101b56101b0366004611506565b6103dc565b005b3480156101c357600080fd5b506101b56101d2366004611506565b610407565b6101b56101e536600461154c565b61048a565b3480156101f657600080fd5b506101b56102053660046114ed565b61096a565b34801561021657600080fd5b5061015361022536600461165b565b6109ba565b34801561023657600080fd5b506101b56102453660046116cb565b610b96565b34801561025657600080fd5b5061026a610265366004611753565b610da2565b6040516001600160a01b03909116815260200161011a565b34801561028e57600080fd5b506102a261029d366004611506565b610dc3565b604051901515815260200161011a565b3480156102be57600080fd5b506101536102cd3660046114ed565b610dec565b3480156102de57600080fd5b506101b56102ed366004611506565b610e03565b3480156102fe57600080fd5b506101537fc0f3378637414317b885402eb428659ba3cbc2330f4bee724741cd4aea9b8b4981565b34801561033257600080fd5b506101b56103413660046114ed565b610e29565b606060008051602061196f8339815191526001600160a01b0383166000908152602091825260408082208054825181860281018601909352808352919390929084015b828210156103d1576000848152602090819020604080518082019091526002850290910180546001600160a01b03168252600190810154828401529083529092019101610389565b505050509050919050565b6000828152602081905260409020600101546103f88133610e79565b6104028383610edd565b505050565b6001600160a01b038116331461047c5760405162461bcd60e51b815260206004820152602f60248201527f416363657373436f6e74726f6c3a2063616e206f6e6c792072656e6f756e636560448201526e103937b632b9903337b91039b2b63360891b60648201526084015b60405180910390fd5b6104868282610f75565b5050565b6001600160a01b038716600090815260008051602061196f83398151915260205260408120906104be8989898989896109ba565b90506000610519826040517f19457468657265756d205369676e6564204d6573736167653a0a3332000000006020820152603c8101829052600090605c01604051602081830303815290604052805190602001209050919050565b90506105497fc0f3378637414317b885402eb428659ba3cbc2330f4bee724741cd4aea9b8b4961029d8387610fee565b6105955760405162461bcd60e51b815260206004820181905260248201527f526573616c653a20496e76616c696420776974686472617720726571756573746044820152606401610473565b348611156105e55760405162461bcd60e51b815260206004820152601b60248201527f526573616c653a20496e73756666696369656e742066756e64732100000000006044820152606401610473565b8560006105f2823461178b565b111561063057336108fc610606893461178b565b6040518115909202916000818181858888f1935050505015801561062e573d6000803e3d6000fd5b505b60035460009061064190606461179e565b60045461064e908a61179e565b61065891906117b5565b6040519091506001600160a01b0388169082156108fc029083906000818181858888f19350505050158015610691573d6000803e3d6000fd5b508061069d818461178b565b6003549093506106ae90606461179e565b6005546106bb908b61179e565b6106c591906117b5565b6006546040519193506001600160a01b03169083156108fc029084906000818181858888f19350505050158015610700573d6000803e3d6000fd5b5061070b82826117d7565b9050610717828461178b565b925060005b86548110156107e65760035461073390606461179e565b878281548110610745576107456117ea565b9060005260206000209060020201600101548b610762919061179e565b61076c91906117b5565b9250868181548110610780576107806117ea565b600091825260208220600290910201546040516001600160a01b039091169185156108fc02918691818181858888f193505050501580156107c5573d6000803e3d6000fd5b506107d083836117d7565b91506107dc838561178b565b935060010161071c565b506040516001600160a01b038c169084156108fc029085906000818181858888f1935050505015801561081d573d6000803e3d6000fd5b5061082883826117d7565b90508881146108835760405162461bcd60e51b815260206004820152602160248201527f526573616c653a204572726f72207472616e7366657272696e672066756e64736044820152602160f81b6064820152608401610473565b6040516323b872dd60e01b81526001600160a01b038c811660048301528d81166024830152604482018c90528e16906323b872dd90606401600060405180830381600087803b1580156108d557600080fd5b505af11580156108e9573d6000803e3d6000fd5b505050507f2f0996da6c077604b5bde68e82fc6389b549462f3d448d4bda60ad38e1a739868d8d8d8d8d6040516109539594939291906001600160a01b03958616815293851660208501529190931660408301526060820192909252608081019190915260a00190565b60405180910390a150505050505050505050505050565b7fd88b35d7427a01a8e16d8a129535b4cf3150edf8d92c0a44dc1eba73bdaf18cb6109958133610e79565b507f232aa753920d876dd52c6464ae9dec228a3cfdca7d146885d71d13b28dc65b9855565b60405163e985e9c560e01b81526001600160a01b0385811660048301523060248301526000919088169063e985e9c590604401602060405180830381865afa158015610a0a573d6000803e3d6000fd5b505050506040513d601f19601f82011682018060405250810190610a2e9190611800565b80610aaa575060405163020604bf60e21b81526004810185905230906001600160a01b0389169063081812fc90602401602060405180830381865afa158015610a7b573d6000803e3d6000fd5b505050506040513d601f19601f82011682018060405250810190610a9f9190611822565b6001600160a01b0316145b610b0f5760405162461bcd60e51b815260206004820152603060248201527f526573616c653a204d61726b6574706c6163652069736e277420617070726f7660448201526f656420666f72207472616e736665727360801b6064820152608401610473565b868686868686610b1d61106d565b6040516bffffffffffffffffffffffff19606098891b8116602083015296881b8716603482015294871b86166048860152605c850193909352607c84019190915290931b909116609c82015260b081019190915260d0016040516020818303038152906040528051906020012090509695505050505050565b82600060008051602061196f833981519152604051632474521560e21b81527f3c2519c4487d47714872f92cf90a50c25f5deaec2789dc2a497b1272df611db660048201523360248201529091506001600160a01b038316906391d1485490604401602060405180830381865afa158015610c15573d6000803e3d6000fd5b505050506040513d601f19601f82011682018060405250810190610c399190611800565b80610cae5750604051632474521560e21b8152600060048201523360248201526001600160a01b038316906391d1485490604401602060405180830381865afa158015610c8a573d6000803e3d6000fd5b505050506040513d601f19601f82011682018060405250810190610cae9190611800565b610d205760405162461bcd60e51b815260206004820152603d60248201527f526573616c653a204f6e6c7920746865206f776e6572206f66206120636f6e7460448201527f726163742063616e2073657420637573746f6d20726f79616c746965730000006064820152608401610473565b60005b83811015610d9a576001600160a01b038616600090815260008051602061196f83398151915260205260409020858583818110610d6257610d626117ea565b835460018101855560009485526020909420604090910292909201926002029091019050610d90828261183f565b5050600101610d23565b505050505050565b6000828152600160205260408120610dba90836110b9565b90505b92915050565b6000918252602082815260408084206001600160a01b0393909316845291905290205460ff1690565b6000818152600160205260408120610dbd906110c5565b600082815260208190526040902060010154610e1f8133610e79565b6104028383610f75565b7fd88b35d7427a01a8e16d8a129535b4cf3150edf8d92c0a44dc1eba73bdaf18cb610e548133610e79565b507f232aa753920d876dd52c6464ae9dec228a3cfdca7d146885d71d13b28dc65b9955565b610e838282610dc3565b61048657610e9b816001600160a01b031660146110cf565b610ea68360206110cf565b604051602001610eb7929190611899565b60408051601f198184030181529082905262461bcd60e51b82526104739160040161190e565b610ee78282610dc3565b610486576000828152602081815260408083206001600160a01b03851684529091529020805460ff19166001179055610f1d3390565b6001600160a01b0316816001600160a01b0316837f2f8788117e7eff1d82e926ec794901d17c78024a50270940304540a733656f0d60405160405180910390a46000828152600160205260409020610402908261124f565b610f7f8282610dc3565b15610486576000828152602081815260408083206001600160a01b0385168085529252808320805460ff1916905551339285917ff6391f5c32d9c69d2a47ea670b442974b53935d1edc7fd64eb21e047a839171b9190a460008281526001602052604090206104029082611264565b600080600080610ffd85611279565b6040805160008152602081018083528b905260ff8316918101919091526060810184905260808101839052929550909350915060019060a0016020604051602081039080840390855afa158015611058573d6000803e3d6000fd5b5050604051601f190151979650505050505050565b600061107a6064426117b5565b61108590606461179e565b7f232aa753920d876dd52c6464ae9dec228a3cfdca7d146885d71d13b28dc65b98549091506110b490826117d7565b905090565b6000610dba83836112ed565b6000610dbd825490565b60608260006110df84600261179e565b6110ea9060026117d7565b67ffffffffffffffff81111561110257611102611536565b6040519080825280601f01601f19166020018201604052801561112c576020820181803683370190505b509050600360fc1b81600081518110611147576111476117ea565b60200101906001600160f81b031916908160001a905350600f60fb1b81600181518110611176576111766117ea565b60200101906001600160f81b031916908160001a905350600061119a85600261179e565b6111a59060016117d7565b90505b600181111561121d576f181899199a1a9b1b9c1cb0b131b232b360811b83600f16601081106111d9576111d96117ea565b1a60f81b8282815181106111ef576111ef6117ea565b60200101906001600160f81b031916908160001a90535060049290921c9161121681611941565b90506111a8565b5081156112475760405163e22e27eb60e01b81526004810186905260248101859052604401610473565b949350505050565b6000610dba836001600160a01b038416611317565b6000610dba836001600160a01b038416611366565b600080600083516041146112cf5760405162461bcd60e51b815260206004820181905260248201527f526573616c653a20696e76616c6964207369676e6174757265206c656e6774686044820152606401610473565b50505060208101516040820151606090920151909260009190911a90565b6000826000018281548110611304576113046117ea565b9060005260206000200154905092915050565b600081815260018301602052604081205461135e57508154600181810184556000848152602080822090930184905584548482528286019093526040902091909155610dbd565b506000610dbd565b6000818152600183016020526040812054801561144f57600061138a60018361178b565b855490915060009061139e9060019061178b565b90508082146114035760008660000182815481106113be576113be6117ea565b90600052602060002001549050808760000184815481106113e1576113e16117ea565b6000918252602080832090910192909255918252600188019052604090208390555b855486908061141457611414611958565b600190038181906000526020600020016000905590558560010160008681526020019081526020016000206000905560019350505050610dbd565b6000915050610dbd565b6001600160a01b038116811461146e57600080fd5b50565b60006020828403121561148357600080fd5b813561148e81611459565b9392505050565b602080825282518282018190526000919060409081850190868401855b828110156114e057815180516001600160a01b031685528601518685015292840192908501906001016114b2565b5091979650505050505050565b6000602082840312156114ff57600080fd5b5035919050565b6000806040838503121561151957600080fd5b82359150602083013561152b81611459565b809150509250929050565b634e487b7160e01b600052604160045260246000fd5b600080600080600080600060e0888a03121561156757600080fd5b873561157281611459565b9650602088013561158281611459565b9550604088013561159281611459565b9450606088013593506080880135925060a08801356115b081611459565b915060c088013567ffffffffffffffff808211156115cd57600080fd5b818a0191508a601f8301126115e157600080fd5b8135818111156115f3576115f3611536565b604051601f8201601f19908116603f0116810190838211818310171561161b5761161b611536565b816040528281528d602084870101111561163457600080fd5b82602086016020830137600060208483010152809550505050505092959891949750929550565b60008060008060008060c0878903121561167457600080fd5b863561167f81611459565b9550602087013561168f81611459565b9450604087013561169f81611459565b9350606087013592506080870135915060a08701356116bd81611459565b809150509295509295509295565b6000806000604084860312156116e057600080fd5b83356116eb81611459565b9250602084013567ffffffffffffffff8082111561170857600080fd5b818601915086601f83011261171c57600080fd5b81358181111561172b57600080fd5b8760208260061b850101111561174057600080fd5b6020830194508093505050509250925092565b6000806040838503121561176657600080fd5b50508035926020909101359150565b634e487b7160e01b600052601160045260246000fd5b81810381811115610dbd57610dbd611775565b8082028115828204841417610dbd57610dbd611775565b6000826117d257634e487b7160e01b600052601260045260246000fd5b500490565b80820180821115610dbd57610dbd611775565b634e487b7160e01b600052603260045260246000fd5b60006020828403121561181257600080fd5b8151801515811461148e57600080fd5b60006020828403121561183457600080fd5b815161148e81611459565b813561184a81611459565b81546001600160a01b0319166001600160a01b03919091161781556020919091013560019190910155565b60005b83811015611890578181015183820152602001611878565b50506000910152565b7f416363657373436f6e74726f6c3a206163636f756e74200000000000000000008152600083516118d1816017850160208801611875565b7001034b99036b4b9b9b4b733903937b6329607d1b6017918401918201528351611902816028840160208801611875565b01602801949350505050565b602081526000825180602084015261192d816040850160208701611875565b601f01601f19169190910160400192915050565b60008161195057611950611775565b506000190190565b634e487b7160e01b600052603160045260246000fdfe232aa753920d876dd52c6464ae9dec228a3cfdca7d146885d71d13b28dc65b96a2646970667358221220c654448e2eb35bc60d53a20e5c830b83ff89bdf86052f4b581f43d2914ee6e0864736f6c63430008190033",
  "devdoc": {
    "author": "Juan M. Sanchez M.",
    "details": "Uses signed messages for gasless offer postings",
    "errors": {
      "StringsInsufficientHexLength(uint256,uint256)": [
        {
          "details": "The `value` string doesn't fit in the specified `length`."
        }
      ]
    },
    "events": {
      "RoleAdminChanged(bytes32,bytes32,bytes32)": {
        "params": {
          "newAdminRole": "contains the new status of the role",
          "previousAdminRole": "contains the previous status of the role",
          "role": "Contains the role we want to update"
        }
      },
      "RoleGranted(bytes32,address,address)": {
        "params": {
          "account": "contains the address that we want to grant the role",
          "role": "Contains the role we want to update",
          "sender": "contains the address that is changing the role of the account"
        }
      },
      "RoleRevoked(bytes32,address,address)": {
        "params": {
          "account": "contains the address that we want to revoke the role",
          "role": "Contains the role we want to update",
          "sender": "contains the address that is changing the role of the account"
        }
      }
    },
    "kind": "dev",
    "methods": {
      "getRoleAdmin(bytes32)": {
        "params": {
          "role": "Contains the role that we want to verify"
        },
        "returns": {
          "_0": "bytes that indicates if an account has or not an admin role"
        }
      },
      "getRoleMember(bytes32,uint256)": {
        "params": {
          "index": "Contains the indexed position to verify inside the role members list",
          "role": "Contains the role that we want to verify"
        },
        "returns": {
          "_0": "address that indicates the address indexed in that position"
        }
      },
      "getRoleMemberCount(bytes32)": {
        "params": {
          "role": "Contains the role that we want to verify"
        },
        "returns": {
          "_0": "uint256 that indicates the total accounts with that role"
        }
      },
      "grantRole(bytes32,address)": {
        "details": "This function is only available to an account with an Admin role",
        "params": {
          "account": "Contains the account that has the role we want to update",
          "role": "Contains the role that we want to grant"
        }
      },
      "hasRole(bytes32,address)": {
        "params": {
          "account": "Contains the account address thay we want to verify",
          "role": "Contains the role that we want to verify"
        },
        "returns": {
          "_0": "bool that indicates if an account has or not a role"
        }
      },
      "renounceRole(bytes32,address)": {
        "details": "Currently you can only renounce to your own roles",
        "params": {
          "account": "Contains the account that has the role we want to update",
          "role": "Contains the role to remove from our account"
        }
      },
      "revokeRole(bytes32,address)": {
        "details": "This function is only available to an account with an Admin role",
        "params": {
          "account": "Contains the account that has the role we want to update",
          "role": "Contains the role that we want to revoke"
        }
      }
    },
    "title": "RAIR Diamond - Resale Marketplace facet",
    "version": 1
  },
  "userdoc": {
    "events": {
      "RoleAdminChanged(bytes32,bytes32,bytes32)": {
        "notice": "This event stores in the blockchain when we change an admin role"
      },
      "RoleGranted(bytes32,address,address)": {
        "notice": "This event stores in the blockchain when we grant a role"
      },
      "RoleRevoked(bytes32,address,address)": {
        "notice": "This event stores in the blockchain when we revoke a role"
      }
    },
    "kind": "user",
    "methods": {
      "getRoleAdmin(bytes32)": {
        "notice": "Allow us to check the admin role that contains a role"
      },
      "getRoleMember(bytes32,uint256)": {
        "notice": "Allow us to check the address of an indexed position for the role list"
      },
      "getRoleMemberCount(bytes32)": {
        "notice": "Allow us to check total members that has an selected role"
      },
      "grantRole(bytes32,address)": {
        "notice": "Allow us to grant a role to an account"
      },
      "hasRole(bytes32,address)": {
        "notice": "Allow us to check the if and account has a selected role"
      },
      "renounceRole(bytes32,address)": {
        "notice": "Allow us to renounce to a role"
      },
      "revokeRole(bytes32,address)": {
        "notice": "Allow us to revoke a role to an account"
      }
    },
    "notice": "Facet in charge of transfering NFTs and funds",
    "version": 1
  },
  "storageLayout": {
    "storage": [
      {
        "astId": 4695,
        "contract": "contracts/Marketplace/Facets/ResalesFacet.sol:ResaleFacet",
        "label": "s",
        "offset": 0,
        "slot": "0",
        "type": "t_struct(AppStorage)4676_storage"
      }
    ],
    "types": {
      "t_address": {
        "encoding": "inplace",
        "label": "address",
        "numberOfBytes": "20"
      },
      "t_array(t_bytes32)dyn_storage": {
        "base": "t_bytes32",
        "encoding": "dynamic_array",
        "label": "bytes32[]",
        "numberOfBytes": "32"
      },
      "t_array(t_struct(feeSplits)4620_storage)dyn_storage": {
        "base": "t_struct(feeSplits)4620_storage",
        "encoding": "dynamic_array",
        "label": "struct feeSplits[]",
        "numberOfBytes": "32"
      },
      "t_array(t_struct(mintingOffer)4633_storage)dyn_storage": {
        "base": "t_struct(mintingOffer)4633_storage",
        "encoding": "dynamic_array",
        "label": "struct mintingOffer[]",
        "numberOfBytes": "32"
      },
      "t_array(t_uint256)dyn_storage": {
        "base": "t_uint256",
        "encoding": "dynamic_array",
        "label": "uint256[]",
        "numberOfBytes": "32"
      },
      "t_bool": {
        "encoding": "inplace",
        "label": "bool",
        "numberOfBytes": "1"
      },
      "t_bytes32": {
        "encoding": "inplace",
        "label": "bytes32",
        "numberOfBytes": "32"
      },
      "t_mapping(t_address,t_array(t_uint256)dyn_storage)": {
        "encoding": "mapping",
        "key": "t_address",
        "label": "mapping(address => uint256[])",
        "numberOfBytes": "32",
        "value": "t_array(t_uint256)dyn_storage"
      },
      "t_mapping(t_address,t_bool)": {
        "encoding": "mapping",
        "key": "t_address",
        "label": "mapping(address => bool)",
        "numberOfBytes": "32",
        "value": "t_bool"
      },
      "t_mapping(t_address,t_mapping(t_uint256,t_uint256))": {
        "encoding": "mapping",
        "key": "t_address",
        "label": "mapping(address => mapping(uint256 => uint256))",
        "numberOfBytes": "32",
        "value": "t_mapping(t_uint256,t_uint256)"
      },
      "t_mapping(t_bytes32,t_struct(AddressSet)3307_storage)": {
        "encoding": "mapping",
        "key": "t_bytes32",
        "label": "mapping(bytes32 => struct EnumerableSet.AddressSet)",
        "numberOfBytes": "32",
        "value": "t_struct(AddressSet)3307_storage"
      },
      "t_mapping(t_bytes32,t_struct(RoleData)4640_storage)": {
        "encoding": "mapping",
        "key": "t_bytes32",
        "label": "mapping(bytes32 => struct RoleData)",
        "numberOfBytes": "32",
        "value": "t_struct(RoleData)4640_storage"
      },
      "t_mapping(t_bytes32,t_uint256)": {
        "encoding": "mapping",
        "key": "t_bytes32",
        "label": "mapping(bytes32 => uint256)",
        "numberOfBytes": "32",
        "value": "t_uint256"
      },
      "t_mapping(t_uint256,t_uint256)": {
        "encoding": "mapping",
        "key": "t_uint256",
        "label": "mapping(uint256 => uint256)",
        "numberOfBytes": "32",
        "value": "t_uint256"
      },
      "t_struct(AddressSet)3307_storage": {
        "encoding": "inplace",
        "label": "struct EnumerableSet.AddressSet",
        "members": [
          {
            "astId": 3306,
            "contract": "contracts/Marketplace/Facets/ResalesFacet.sol:ResaleFacet",
            "label": "_inner",
            "offset": 0,
            "slot": "0",
            "type": "t_struct(Set)2992_storage"
          }
        ],
        "numberOfBytes": "64"
      },
      "t_struct(AppStorage)4676_storage": {
        "encoding": "inplace",
        "label": "struct AppStorage",
        "members": [
          {
            "astId": 4645,
            "contract": "contracts/Marketplace/Facets/ResalesFacet.sol:ResaleFacet",
            "label": "_roles",
            "offset": 0,
            "slot": "0",
            "type": "t_mapping(t_bytes32,t_struct(RoleData)4640_storage)"
          },
          {
            "astId": 4650,
            "contract": "contracts/Marketplace/Facets/ResalesFacet.sol:ResaleFacet",
            "label": "_roleMembers",
            "offset": 0,
            "slot": "1",
            "type": "t_mapping(t_bytes32,t_struct(AddressSet)3307_storage)"
          },
          {
            "astId": 4652,
            "contract": "contracts/Marketplace/Facets/ResalesFacet.sol:ResaleFacet",
            "label": "decimals",
            "offset": 0,
            "slot": "2",
            "type": "t_uint16"
          },
          {
            "astId": 4654,
            "contract": "contracts/Marketplace/Facets/ResalesFacet.sol:ResaleFacet",
            "label": "decimalPow",
            "offset": 0,
            "slot": "3",
            "type": "t_uint256"
          },
          {
            "astId": 4656,
            "contract": "contracts/Marketplace/Facets/ResalesFacet.sol:ResaleFacet",
            "label": "nodeFee",
            "offset": 0,
            "slot": "4",
            "type": "t_uint256"
          },
          {
            "astId": 4658,
            "contract": "contracts/Marketplace/Facets/ResalesFacet.sol:ResaleFacet",
            "label": "treasuryFee",
            "offset": 0,
            "slot": "5",
            "type": "t_uint256"
          },
          {
            "astId": 4660,
            "contract": "contracts/Marketplace/Facets/ResalesFacet.sol:ResaleFacet",
            "label": "treasuryAddress",
            "offset": 0,
            "slot": "6",
            "type": "t_address"
          },
          {
            "astId": 4664,
            "contract": "contracts/Marketplace/Facets/ResalesFacet.sol:ResaleFacet",
            "label": "mintingOffers",
            "offset": 0,
            "slot": "7",
            "type": "t_array(t_struct(mintingOffer)4633_storage)dyn_storage"
          },
          {
            "astId": 4670,
            "contract": "contracts/Marketplace/Facets/ResalesFacet.sol:ResaleFacet",
            "label": "addressToRangeOffer",
            "offset": 0,
            "slot": "8",
            "type": "t_mapping(t_address,t_mapping(t_uint256,t_uint256))"
          },
          {
            "astId": 4675,
            "contract": "contracts/Marketplace/Facets/ResalesFacet.sol:ResaleFacet",
            "label": "addressToOffers",
            "offset": 0,
            "slot": "9",
            "type": "t_mapping(t_address,t_array(t_uint256)dyn_storage)"
          }
        ],
        "numberOfBytes": "320"
      },
      "t_struct(RoleData)4640_storage": {
        "encoding": "inplace",
        "label": "struct RoleData",
        "members": [
          {
            "astId": 4637,
            "contract": "contracts/Marketplace/Facets/ResalesFacet.sol:ResaleFacet",
            "label": "members",
            "offset": 0,
            "slot": "0",
            "type": "t_mapping(t_address,t_bool)"
          },
          {
            "astId": 4639,
            "contract": "contracts/Marketplace/Facets/ResalesFacet.sol:ResaleFacet",
            "label": "adminRole",
            "offset": 0,
            "slot": "1",
            "type": "t_bytes32"
          }
        ],
        "numberOfBytes": "64"
      },
      "t_struct(Set)2992_storage": {
        "encoding": "inplace",
        "label": "struct EnumerableSet.Set",
        "members": [
          {
            "astId": 2987,
            "contract": "contracts/Marketplace/Facets/ResalesFacet.sol:ResaleFacet",
            "label": "_values",
            "offset": 0,
            "slot": "0",
            "type": "t_array(t_bytes32)dyn_storage"
          },
          {
            "astId": 2991,
            "contract": "contracts/Marketplace/Facets/ResalesFacet.sol:ResaleFacet",
            "label": "_positions",
            "offset": 0,
            "slot": "1",
            "type": "t_mapping(t_bytes32,t_uint256)"
          }
        ],
        "numberOfBytes": "64"
      },
      "t_struct(feeSplits)4620_storage": {
        "encoding": "inplace",
        "label": "struct feeSplits",
        "members": [
          {
            "astId": 4615,
            "contract": "contracts/Marketplace/Facets/ResalesFacet.sol:ResaleFacet",
            "label": "recipient",
            "offset": 0,
            "slot": "0",
            "type": "t_address"
          },
          {
            "astId": 4617,
            "contract": "contracts/Marketplace/Facets/ResalesFacet.sol:ResaleFacet",
            "label": "canBeContract",
            "offset": 20,
            "slot": "0",
            "type": "t_bool"
          },
          {
            "astId": 4619,
            "contract": "contracts/Marketplace/Facets/ResalesFacet.sol:ResaleFacet",
            "label": "percentage",
            "offset": 0,
            "slot": "1",
            "type": "t_uint256"
          }
        ],
        "numberOfBytes": "64"
      },
      "t_struct(mintingOffer)4633_storage": {
        "encoding": "inplace",
        "label": "struct mintingOffer",
        "members": [
          {
            "astId": 4622,
            "contract": "contracts/Marketplace/Facets/ResalesFacet.sol:ResaleFacet",
            "label": "erc721Address",
            "offset": 0,
            "slot": "0",
            "type": "t_address"
          },
          {
            "astId": 4624,
            "contract": "contracts/Marketplace/Facets/ResalesFacet.sol:ResaleFacet",
            "label": "nodeAddress",
            "offset": 0,
            "slot": "1",
            "type": "t_address"
          },
          {
            "astId": 4626,
            "contract": "contracts/Marketplace/Facets/ResalesFacet.sol:ResaleFacet",
            "label": "rangeIndex",
            "offset": 0,
            "slot": "2",
            "type": "t_uint256"
          },
          {
            "astId": 4630,
            "contract": "contracts/Marketplace/Facets/ResalesFacet.sol:ResaleFacet",
            "label": "fees",
            "offset": 0,
            "slot": "3",
            "type": "t_array(t_struct(feeSplits)4620_storage)dyn_storage"
          },
          {
            "astId": 4632,
            "contract": "contracts/Marketplace/Facets/ResalesFacet.sol:ResaleFacet",
            "label": "visible",
            "offset": 0,
            "slot": "4",
            "type": "t_bool"
          }
        ],
        "numberOfBytes": "160"
      },
      "t_uint16": {
        "encoding": "inplace",
        "label": "uint16",
        "numberOfBytes": "2"
      },
      "t_uint256": {
        "encoding": "inplace",
        "label": "uint256",
        "numberOfBytes": "32"
      }
    }
  }
}